{
  "_format": "hh-sol-artifact-1",
  "contractName": "FlippandoGameMaster",
  "sourceName": "contracts/FlippandoGameMaster.sol",
  "abi": [
    {
      "inputs": [
        {
          "internalType": "address",
          "name": "flipTokenAddress",
          "type": "address"
        }
      ],
      "stateMutability": "nonpayable",
      "type": "constructor"
    },
    {
      "anonymous": false,
      "inputs": [
        {
          "indexed": true,
          "internalType": "address",
          "name": "owner",
          "type": "address"
        },
        {
          "indexed": true,
          "internalType": "address",
          "name": "approved",
          "type": "address"
        },
        {
          "indexed": true,
          "internalType": "uint256",
          "name": "tokenId",
          "type": "uint256"
        }
      ],
      "name": "Approval",
      "type": "event"
    },
    {
      "anonymous": false,
      "inputs": [
        {
          "indexed": true,
          "internalType": "address",
          "name": "owner",
          "type": "address"
        },
        {
          "indexed": true,
          "internalType": "address",
          "name": "operator",
          "type": "address"
        },
        {
          "indexed": false,
          "internalType": "bool",
          "name": "approved",
          "type": "bool"
        }
      ],
      "name": "ApprovalForAll",
      "type": "event"
    },
    {
      "anonymous": false,
      "inputs": [
        {
          "indexed": true,
          "internalType": "address",
          "name": "from",
          "type": "address"
        },
        {
          "indexed": true,
          "internalType": "address",
          "name": "to",
          "type": "address"
        },
        {
          "indexed": true,
          "internalType": "uint256",
          "name": "tokenId",
          "type": "uint256"
        }
      ],
      "name": "Transfer",
      "type": "event"
    },
    {
      "inputs": [
        {
          "internalType": "address",
          "name": "to",
          "type": "address"
        },
        {
          "internalType": "uint256",
          "name": "tokenId",
          "type": "uint256"
        }
      ],
      "name": "approve",
      "outputs": [],
      "stateMutability": "nonpayable",
      "type": "function"
    },
    {
      "inputs": [
        {
          "internalType": "address",
          "name": "owner",
          "type": "address"
        }
      ],
      "name": "balanceOf",
      "outputs": [
        {
          "internalType": "uint256",
          "name": "",
          "type": "uint256"
        }
      ],
      "stateMutability": "view",
      "type": "function"
    },
    {
      "inputs": [
        {
          "internalType": "address",
          "name": "newOwner",
          "type": "address"
        }
      ],
      "name": "changeOwner",
      "outputs": [],
      "stateMutability": "nonpayable",
      "type": "function"
    },
    {
      "inputs": [
        {
          "internalType": "string",
          "name": "metadata",
          "type": "string"
        },
        {
          "internalType": "uint256",
          "name": "boardSize",
          "type": "uint256"
        },
        {
          "internalType": "enum FlippandoGameMaster.GameType",
          "name": "gameType",
          "type": "uint8"
        },
        {
          "internalType": "string",
          "name": "gameTileType",
          "type": "string"
        }
      ],
      "name": "createGame",
      "outputs": [],
      "stateMutability": "nonpayable",
      "type": "function"
    },
    {
      "inputs": [
        {
          "internalType": "string",
          "name": "concatenated",
          "type": "string"
        }
      ],
      "name": "extractGameId",
      "outputs": [
        {
          "internalType": "uint256",
          "name": "",
          "type": "uint256"
        }
      ],
      "stateMutability": "pure",
      "type": "function"
    },
    {
      "inputs": [
        {
          "internalType": "string",
          "name": "gameId",
          "type": "string"
        },
        {
          "internalType": "address",
          "name": "user",
          "type": "address"
        }
      ],
      "name": "finishGame",
      "outputs": [],
      "stateMutability": "nonpayable",
      "type": "function"
    },
    {
      "inputs": [
        {
          "internalType": "uint256",
          "name": "tokenId",
          "type": "uint256"
        }
      ],
      "name": "getApproved",
      "outputs": [
        {
          "internalType": "address",
          "name": "",
          "type": "address"
        }
      ],
      "stateMutability": "view",
      "type": "function"
    },
    {
      "inputs": [
        {
          "internalType": "uint256",
          "name": "gameId",
          "type": "uint256"
        }
      ],
      "name": "getGameMetadata",
      "outputs": [
        {
          "internalType": "string",
          "name": "",
          "type": "string"
        }
      ],
      "stateMutability": "view",
      "type": "function"
    },
    {
      "inputs": [
        {
          "internalType": "address",
          "name": "creator",
          "type": "address"
        }
      ],
      "name": "getNormalGames",
      "outputs": [
        {
          "internalType": "uint256[]",
          "name": "",
          "type": "uint256[]"
        }
      ],
      "stateMutability": "view",
      "type": "function"
    },
    {
      "inputs": [
        {
          "internalType": "address",
          "name": "creator",
          "type": "address"
        }
      ],
      "name": "getSponsoredGames",
      "outputs": [
        {
          "internalType": "uint256[]",
          "name": "",
          "type": "uint256[]"
        }
      ],
      "stateMutability": "view",
      "type": "function"
    },
    {
      "inputs": [
        {
          "internalType": "uint256",
          "name": "gameId",
          "type": "uint256"
        },
        {
          "internalType": "uint256",
          "name": "boardSize",
          "type": "uint256"
        },
        {
          "internalType": "enum FlippandoGameMaster.GameType",
          "name": "gameType",
          "type": "uint8"
        },
        {
          "internalType": "address",
          "name": "gamePlayer",
          "type": "address"
        }
      ],
      "name": "initializeGame",
      "outputs": [],
      "stateMutability": "nonpayable",
      "type": "function"
    },
    {
      "inputs": [
        {
          "internalType": "address",
          "name": "owner",
          "type": "address"
        },
        {
          "internalType": "address",
          "name": "operator",
          "type": "address"
        }
      ],
      "name": "isApprovedForAll",
      "outputs": [
        {
          "internalType": "bool",
          "name": "",
          "type": "bool"
        }
      ],
      "stateMutability": "view",
      "type": "function"
    },
    {
      "inputs": [],
      "name": "name",
      "outputs": [
        {
          "internalType": "string",
          "name": "",
          "type": "string"
        }
      ],
      "stateMutability": "view",
      "type": "function"
    },
    {
      "inputs": [],
      "name": "owner",
      "outputs": [
        {
          "internalType": "address",
          "name": "",
          "type": "address"
        }
      ],
      "stateMutability": "view",
      "type": "function"
    },
    {
      "inputs": [
        {
          "internalType": "uint256",
          "name": "tokenId",
          "type": "uint256"
        }
      ],
      "name": "ownerOf",
      "outputs": [
        {
          "internalType": "address",
          "name": "",
          "type": "address"
        }
      ],
      "stateMutability": "view",
      "type": "function"
    },
    {
      "inputs": [
        {
          "internalType": "uint256",
          "name": "gameId",
          "type": "uint256"
        }
      ],
      "name": "releaseGame",
      "outputs": [],
      "stateMutability": "nonpayable",
      "type": "function"
    },
    {
      "inputs": [
        {
          "internalType": "address",
          "name": "from",
          "type": "address"
        },
        {
          "internalType": "address",
          "name": "to",
          "type": "address"
        },
        {
          "internalType": "uint256",
          "name": "tokenId",
          "type": "uint256"
        }
      ],
      "name": "safeTransferFrom",
      "outputs": [],
      "stateMutability": "nonpayable",
      "type": "function"
    },
    {
      "inputs": [
        {
          "internalType": "address",
          "name": "from",
          "type": "address"
        },
        {
          "internalType": "address",
          "name": "to",
          "type": "address"
        },
        {
          "internalType": "uint256",
          "name": "tokenId",
          "type": "uint256"
        },
        {
          "internalType": "bytes",
          "name": "_data",
          "type": "bytes"
        }
      ],
      "name": "safeTransferFrom",
      "outputs": [],
      "stateMutability": "nonpayable",
      "type": "function"
    },
    {
      "inputs": [
        {
          "internalType": "address",
          "name": "operator",
          "type": "address"
        },
        {
          "internalType": "bool",
          "name": "approved",
          "type": "bool"
        }
      ],
      "name": "setApprovalForAll",
      "outputs": [],
      "stateMutability": "nonpayable",
      "type": "function"
    },
    {
      "inputs": [
        {
          "internalType": "bytes4",
          "name": "interfaceId",
          "type": "bytes4"
        }
      ],
      "name": "supportsInterface",
      "outputs": [
        {
          "internalType": "bool",
          "name": "",
          "type": "bool"
        }
      ],
      "stateMutability": "view",
      "type": "function"
    },
    {
      "inputs": [],
      "name": "symbol",
      "outputs": [
        {
          "internalType": "string",
          "name": "",
          "type": "string"
        }
      ],
      "stateMutability": "view",
      "type": "function"
    },
    {
      "inputs": [
        {
          "internalType": "uint256",
          "name": "tokenId",
          "type": "uint256"
        }
      ],
      "name": "tokenURI",
      "outputs": [
        {
          "internalType": "string",
          "name": "",
          "type": "string"
        }
      ],
      "stateMutability": "view",
      "type": "function"
    },
    {
      "inputs": [
        {
          "internalType": "address",
          "name": "from",
          "type": "address"
        },
        {
          "internalType": "address",
          "name": "to",
          "type": "address"
        },
        {
          "internalType": "uint256",
          "name": "tokenId",
          "type": "uint256"
        }
      ],
      "name": "transferFrom",
      "outputs": [],
      "stateMutability": "nonpayable",
      "type": "function"
    }
  ],
  "bytecode": "0x60806040523480156200001157600080fd5b506040516200249f3803806200249f833981016040819052620000349162000183565b604080518082018252601381527f466c697070616e646f47616d654d6173746572000000000000000000000000006020808301918252835180850190945260048452631191d35560e21b9084015281519192916200009591600091620000dd565b508051620000ab906001906020840190620000dd565b5050600c80546001600160a01b039093166001600160a01b0319938416179055506008805490911633179055620001f0565b828054620000eb90620001b3565b90600052602060002090601f0160209004810192826200010f57600085556200015a565b82601f106200012a57805160ff19168380011785556200015a565b828001600101855582156200015a579182015b828111156200015a5782518255916020019190600101906200013d565b50620001689291506200016c565b5090565b5b808211156200016857600081556001016200016d565b60006020828403121562000195578081fd5b81516001600160a01b0381168114620001ac578182fd5b9392505050565b600181811c90821680620001c857607f821691505b60208210811415620001ea57634e487b7160e01b600052602260045260246000fd5b50919050565b61229f80620002006000396000f3fe608060405234801561001057600080fd5b506004361061012d5760003560e01c806377e0e577116100b357806377e0e577146102375780638da5cb5b1461025757806395d89b411461026a5780639a0b226714610272578063a22cb46514610285578063a6f9dae114610298578063a76805cf146102ab578063b644b42f146102c0578063b88d4fde146102d3578063c87b56dd146102e6578063e985e9c5146102f9578063eccf1e221461030c57600080fd5b806301ffc9a71461013257806306fdde031461015a578063081812fc1461016f578063095ea7b31461018f57806321b113f3146101a457806323b872dd146101b757806342842e0e146101ca57806344f606a1146101dd5780634a524bdd146101f05780636352211e1461020357806370a0823114610216575b600080fd5b610145610140366004611cea565b610320565b60405190151581526020015b60405180910390f35b610162610372565b6040516101519190612004565b61018261017d366004611e04565b610404565b6040516101519190611f6f565b6101a261019d366004611cc1565b610491565b005b6101626101b2366004611e04565b6105a2565b6101a26101c5366004611bd4565b61066a565b6101a26101d8366004611bd4565b61069b565b6101a26101eb366004611d54565b6106b6565b6101a26101fe366004611d96565b610753565b610182610211366004611e04565b610b9b565b610229610224366004611b88565b610c12565b604051908152602001610151565b61024a610245366004611b88565b610c99565b6040516101519190611fc0565b600854610182906001600160a01b031681565b610162610d04565b61024a610280366004611b88565b610d13565b6101a2610293366004611c87565b610d7d565b6101a26102a6366004611b88565b610d8c565b6102296102b9366004611d22565b6034015190565b6101a26102ce366004611e04565b610dd8565b6101a26102e1366004611c0f565b610f62565b6101626102f4366004611e04565b610f94565b610145610307366004611ba2565b61110b565b6101a261031a366004611e34565b50505050565b60006001600160e01b031982166380ac58cd60e01b148061035157506001600160e01b03198216635b5e139f60e01b145b8061036c57506301ffc9a760e01b6001600160e01b03198316145b92915050565b606060008054610381906121a4565b80601f01602080910402602001604051908101604052809291908181526020018280546103ad906121a4565b80156103fa5780601f106103cf576101008083540402835291602001916103fa565b820191906000526020600020905b8154815290600101906020018083116103dd57829003601f168201915b5050505050905090565b600061040f82611139565b6104755760405162461bcd60e51b815260206004820152602c60248201527f4552433732313a20617070726f76656420717565727920666f72206e6f6e657860448201526b34b9ba32b73a103a37b5b2b760a11b60648201526084015b60405180910390fd5b506000908152600460205260409020546001600160a01b031690565b600061049c82610b9b565b9050806001600160a01b0316836001600160a01b0316141561050a5760405162461bcd60e51b815260206004820152602160248201527f4552433732313a20617070726f76616c20746f2063757272656e74206f776e656044820152603960f91b606482015260840161046c565b336001600160a01b03821614806105265750610526813361110b565b6105935760405162461bcd60e51b815260206004820152603860248201527f4552433732313a20617070726f76652063616c6c6572206973206e6f74206f776044820152771b995c881b9bdc88185c1c1c9bdd995908199bdc88185b1b60421b606482015260840161046c565b61059d8383611156565b505050565b60606105ad82611139565b6105c95760405162461bcd60e51b815260040161046c906120b7565b600082815260096020526040902060020180546105e5906121a4565b80601f0160208091040260200160405190810160405280929190818152602001828054610611906121a4565b801561065e5780601f106106335761010080835404028352916020019161065e565b820191906000526020600020905b81548152906001019060200180831161064157829003601f168201915b50505050509050919050565b61067433826111c4565b6106905760405162461bcd60e51b815260040161046c906120e4565b61059d83838361128d565b61059d83838360405180602001604052806000815250610f62565b6008546001600160a01b031633146106e05760405162461bcd60e51b815260040161046c90612069565b60006106ed836034015190565b90506106f881611139565b6107145760405162461bcd60e51b815260040161046c906120b7565b60408051808201825260068152651cdbdb1d995960d21b60208083019182526000858152600990915292909220905161031a9260049092019190611a30565b600082600181111561077557634e487b7160e01b600052602160045260246000fd5b14156109ed57600c546040516370a0823160e01b81526004916001600160a01b0316906370a08231906107ab9033908501611f6f565b60206040518083038186803b1580156107c357600080fd5b505afa1580156107d7573d6000803e3d6000fd5b505050506040513d601f19601f820116820180604052508101906107fb9190611e1c565b10156108445760405162461bcd60e51b8152602060048201526018602482015277496e73756666696369656e7420464c495020746f6b656e7360401b604482015260640161046c565b600780549081906000610856836121df565b91905055506108653382611429565b61086f8186611443565b6040518060e00160405280336001600160a01b03168152602001306001600160a01b031681526020018681526020018381526020016040518060400160405280600781526020016618dc99585d195960ca1b81525081526020018460018111156108e957634e487b7160e01b600052602160045260246000fd5b81526004602091820152600083815260098252604090819020835181546001600160a01b039182166001600160a01b031991821617835585850151600184018054919093169116179055908301518051919261094d92600285019290910190611a30565b5060608201518051610969916003840191602090910190611a30565b5060808201518051610985916004840191602090910190611a30565b5060a082015160058201805460ff1916600183818111156109b657634e487b7160e01b600052602160045260246000fd5b021790555060c09190910151600690910155336000908152600a60209081526040822080546001810182559083529120015561031a565b6007805490819060006109ff836121df565b9190505550610a0e3382611429565b610a188186611443565b6040518060e00160405280336001600160a01b03168152602001336001600160a01b031681526020018681526020018381526020016040518060400160405280600781526020016618dc99585d195960ca1b8152508152602001846001811115610a9257634e487b7160e01b600052602160045260246000fd5b815260016020918201819052600084815260098352604090819020845181546001600160a01b039182166001600160a01b03199182161783558686015194830180549590921694169390931790925583015180519192610afa92600285019290910190611a30565b5060608201518051610b16916003840191602090910190611a30565b5060808201518051610b32916004840191602090910190611a30565b5060a082015160058201805460ff191660018381811115610b6357634e487b7160e01b600052602160045260246000fd5b021790555060c09190910151600690910155336000908152600b60209081526040822080546001810182559083529120015550505050565b6000818152600260205260408120546001600160a01b03168061036c5760405162461bcd60e51b815260206004820152602960248201527f4552433732313a206f776e657220717565727920666f72206e6f6e657869737460448201526832b73a103a37b5b2b760b91b606482015260840161046c565b60006001600160a01b038216610c7d5760405162461bcd60e51b815260206004820152602a60248201527f4552433732313a2062616c616e636520717565727920666f7220746865207a65604482015269726f206164647265737360b01b606482015260840161046c565b506001600160a01b031660009081526003602052604090205490565b6001600160a01b0381166000908152600a602090815260409182902080548351818402810184019094528084526060939283018282801561065e57602002820191906000526020600020905b815481526020019060010190808311610ce55750505050509050919050565b606060018054610381906121a4565b6001600160a01b0381166000908152600b602090815260409182902080548351818402810184019094528084526060939283018282801561065e5760200282019190600052602060002090815481526020019060010190808311610ce55750505050509050919050565b610d883383836114ce565b5050565b6008546001600160a01b03163314610db65760405162461bcd60e51b815260040161046c90612069565b600880546001600160a01b0319166001600160a01b0392909216919091179055565b610de181611139565b610dfd5760405162461bcd60e51b815260040161046c906120b7565b60008181526009602052604081206005015460ff166001811115610e3157634e487b7160e01b600052602160045260246000fd5b14610e765760405162461bcd60e51b815260206004820152601560248201527411d85b59481a5cc81b9bdd081cdc1bdb9cdbdc9959605a1b604482015260640161046c565b60408051808201825260068152651cdbdb1d995960d21b6020918201526000838152600990915281902090517f8bdfeee14d9ac54fc87c1979a63f61f37dbee3d415836de3ac6baac7802e96cc91610ed391600490910190611ea5565b60405180910390201415610f225760405162461bcd60e51b815260206004820152601660248201527511d85b59481a5cc8185b1c9958591e481cdbdb1d995960521b604482015260640161046c565b604080518082018252600781526618dc99585d195960ca1b602080830191825260008581526009909152929092209051610d889260049092019190611a30565b610f6c33836111c4565b610f885760405162461bcd60e51b815260040161046c906120e4565b61031a84848484611599565b6060610f9f82611139565b6110055760405162461bcd60e51b815260206004820152603160248201527f45524337323155524953746f726167653a2055524920717565727920666f72206044820152703737b732bc34b9ba32b73a103a37b5b2b760791b606482015260840161046c565b6000828152600660205260408120805461101e906121a4565b80601f016020809104026020016040519081016040528092919081815260200182805461104a906121a4565b80156110975780601f1061106c57610100808354040283529160200191611097565b820191906000526020600020905b81548152906001019060200180831161107a57829003601f168201915b5050505050905060006110b560408051602081019091526000815290565b90508051600014156110c8575092915050565b8151156110fa5780826040516020016110e2929190611f40565b60405160208183030381529060405292505050919050565b611103846115cc565b949350505050565b6001600160a01b03918216600090815260056020908152604080832093909416825291909152205460ff1690565b6000908152600260205260409020546001600160a01b0316151590565b600081815260046020526040902080546001600160a01b0319166001600160a01b038416908117909155819061118b82610b9b565b6001600160a01b03167f8c5be1e5ebec7d5bd14f71427d1e84f3dd0314c0f7b2291e5b200ac8c7c3b92560405160405180910390a45050565b60006111cf82611139565b6112305760405162461bcd60e51b815260206004820152602c60248201527f4552433732313a206f70657261746f7220717565727920666f72206e6f6e657860448201526b34b9ba32b73a103a37b5b2b760a11b606482015260840161046c565b600061123b83610b9b565b9050806001600160a01b0316846001600160a01b031614806112625750611262818561110b565b806111035750836001600160a01b031661127b84610404565b6001600160a01b031614949350505050565b826001600160a01b03166112a082610b9b565b6001600160a01b0316146113045760405162461bcd60e51b815260206004820152602560248201527f4552433732313a207472616e736665722066726f6d20696e636f72726563742060448201526437bbb732b960d91b606482015260840161046c565b6001600160a01b0382166113665760405162461bcd60e51b8152602060048201526024808201527f4552433732313a207472616e7366657220746f20746865207a65726f206164646044820152637265737360e01b606482015260840161046c565b611371600082611156565b6001600160a01b038316600090815260036020526040812080546001929061139a908490612161565b90915550506001600160a01b03821660009081526003602052604081208054600192906113c8908490612135565b909155505060008181526002602052604080822080546001600160a01b0319166001600160a01b0386811691821790925591518493918716917fddf252ad1be2c89b69c2b068fc378daa952ba7f163c4a11628f55a4df523b3ef91a4505050565b610d888282604051806020016040528060008152506116a4565b61144c82611139565b6114af5760405162461bcd60e51b815260206004820152602e60248201527f45524337323155524953746f726167653a2055524920736574206f66206e6f6e60448201526d32bc34b9ba32b73a103a37b5b2b760911b606482015260840161046c565b6000828152600660209081526040909120825161059d92840190611a30565b816001600160a01b0316836001600160a01b0316141561152c5760405162461bcd60e51b815260206004820152601960248201527822a9219b99189d1030b8383937bb32903a379031b0b63632b960391b604482015260640161046c565b6001600160a01b03838116600081815260056020908152604080832094871680845294825291829020805460ff191686151590811790915591519182527f17307eab39ab6107e8899845ad3d59bd9653f200f220920489ca2b5937696c31910160405180910390a3505050565b6115a484848461128d565b6115b0848484846116d7565b61031a5760405162461bcd60e51b815260040161046c90612017565b60606115d782611139565b61163b5760405162461bcd60e51b815260206004820152602f60248201527f4552433732314d657461646174613a2055524920717565727920666f72206e6f60448201526e3732bc34b9ba32b73a103a37b5b2b760891b606482015260840161046c565b600061165260408051602081019091526000815290565b90506000815111611672576040518060200160405280600081525061169d565b8061167c846117e4565b60405160200161168d929190611f40565b6040516020818303038152906040525b9392505050565b6116ae83836118fd565b6116bb60008484846116d7565b61059d5760405162461bcd60e51b815260040161046c90612017565b60006001600160a01b0384163b156117d957604051630a85bd0160e11b81526001600160a01b0385169063150b7a029061171b903390899088908890600401611f83565b602060405180830381600087803b15801561173557600080fd5b505af1925050508015611765575060408051601f3d908101601f1916820190925261176291810190611d06565b60015b6117bf573d808015611793576040519150601f19603f3d011682016040523d82523d6000602084013e611798565b606091505b5080516117b75760405162461bcd60e51b815260040161046c90612017565b805181602001fd5b6001600160e01b031916630a85bd0160e11b149050611103565b506001949350505050565b6060816118085750506040805180820190915260018152600360fc1b602082015290565b8160005b8115611832578061181c816121df565b915061182b9050600a8361214d565b915061180c565b6000816001600160401b0381111561185a57634e487b7160e01b600052604160045260246000fd5b6040519080825280601f01601f191660200182016040528015611884576020820181803683370190505b5090505b841561110357611899600183612161565b91506118a6600a866121fa565b6118b1906030612135565b60f81b8183815181106118d457634e487b7160e01b600052603260045260246000fd5b60200101906001600160f81b031916908160001a9053506118f6600a8661214d565b9450611888565b6001600160a01b0382166119535760405162461bcd60e51b815260206004820181905260248201527f4552433732313a206d696e7420746f20746865207a65726f2061646472657373604482015260640161046c565b61195c81611139565b156119a95760405162461bcd60e51b815260206004820152601c60248201527f4552433732313a20746f6b656e20616c7265616479206d696e74656400000000604482015260640161046c565b6001600160a01b03821660009081526003602052604081208054600192906119d2908490612135565b909155505060008181526002602052604080822080546001600160a01b0319166001600160a01b03861690811790915590518392907fddf252ad1be2c89b69c2b068fc378daa952ba7f163c4a11628f55a4df523b3ef908290a45050565b828054611a3c906121a4565b90600052602060002090601f016020900481019282611a5e5760008555611aa4565b82601f10611a7757805160ff1916838001178555611aa4565b82800160010185558215611aa4579182015b82811115611aa4578251825591602001919060010190611a89565b50611ab0929150611ab4565b5090565b5b80821115611ab05760008155600101611ab5565b60006001600160401b0380841115611ae357611ae361223a565b604051601f8501601f19908116603f01168101908282118183101715611b0b57611b0b61223a565b81604052809350858152868686011115611b2457600080fd5b858560208301376000602087830101525050509392505050565b80356001600160a01b0381168114611b5557600080fd5b919050565b803560028110611b5557600080fd5b600082601f830112611b79578081fd5b61169d83833560208501611ac9565b600060208284031215611b99578081fd5b61169d82611b3e565b60008060408385031215611bb4578081fd5b611bbd83611b3e565b9150611bcb60208401611b3e565b90509250929050565b600080600060608486031215611be8578081fd5b611bf184611b3e565b9250611bff60208501611b3e565b9150604084013590509250925092565b60008060008060808587031215611c24578081fd5b611c2d85611b3e565b9350611c3b60208601611b3e565b92506040850135915060608501356001600160401b03811115611c5c578182fd5b8501601f81018713611c6c578182fd5b611c7b87823560208401611ac9565b91505092959194509250565b60008060408385031215611c99578182fd5b611ca283611b3e565b915060208301358015158114611cb6578182fd5b809150509250929050565b60008060408385031215611cd3578182fd5b611cdc83611b3e565b946020939093013593505050565b600060208284031215611cfb578081fd5b813561169d81612250565b600060208284031215611d17578081fd5b815161169d81612250565b600060208284031215611d33578081fd5b81356001600160401b03811115611d48578182fd5b61110384828501611b69565b60008060408385031215611d66578182fd5b82356001600160401b03811115611d7b578283fd5b611d8785828601611b69565b925050611bcb60208401611b3e565b60008060008060808587031215611dab578384fd5b84356001600160401b0380821115611dc1578586fd5b611dcd88838901611b69565b955060208701359450611de260408801611b5a565b93506060870135915080821115611df7578283fd5b50611c7b87828801611b69565b600060208284031215611e15578081fd5b5035919050565b600060208284031215611e2d578081fd5b5051919050565b60008060008060808587031215611e49578182fd5b8435935060208501359250611e6060408601611b5a565b9150611e6e60608601611b3e565b905092959194509250565b60008151808452611e91816020860160208601612178565b601f01601f19169290920160200192915050565b600080835482600182811c915080831680611ec157607f831692505b6020808410821415611ee157634e487b7160e01b87526022600452602487fd5b818015611ef55760018114611f0657611f32565b60ff19861689528489019650611f32565b60008a815260209020885b86811015611f2a5781548b820152908501908301611f11565b505084890196505b509498975050505050505050565b60008351611f52818460208801612178565b835190830190611f66818360208801612178565b01949350505050565b6001600160a01b0391909116815260200190565b6001600160a01b0385811682528416602082015260408101839052608060608201819052600090611fb690830184611e79565b9695505050505050565b6020808252825182820181905260009190848201906040850190845b81811015611ff857835183529284019291840191600101611fdc565b50909695505050505050565b60208152600061169d6020830184611e79565b60208082526032908201527f4552433732313a207472616e7366657220746f206e6f6e20455243373231526560408201527131b2b4bb32b91034b6b83632b6b2b73a32b960711b606082015260800190565b6020808252602e908201527f4f6e6c792074686520636f6e7472616374206f776e65722063616e2063616c6c60408201526d103a3434b990333ab731ba34b7b760911b606082015260800190565b60208082526013908201527211d85b5948191bd95cc81b9bdd08195e1a5cdd606a1b604082015260600190565b60208082526031908201527f4552433732313a207472616e736665722063616c6c6572206973206e6f74206f6040820152701ddb995c881b9bdc88185c1c1c9bdd9959607a1b606082015260800190565b600082198211156121485761214861220e565b500190565b60008261215c5761215c612224565b500490565b6000828210156121735761217361220e565b500390565b60005b8381101561219357818101518382015260200161217b565b8381111561031a5750506000910152565b600181811c908216806121b857607f821691505b602082108114156121d957634e487b7160e01b600052602260045260246000fd5b50919050565b60006000198214156121f3576121f361220e565b5060010190565b60008261220957612209612224565b500690565b634e487b7160e01b600052601160045260246000fd5b634e487b7160e01b600052601260045260246000fd5b634e487b7160e01b600052604160045260246000fd5b6001600160e01b03198116811461226657600080fd5b5056fea26469706673582212203e9c388b33ef238844cf7d506a0e394da8e99f0a88f6e2ee88fdfd91e045273e64736f6c63430008040033",
  "linkReferences": {},
  "deployedLinkReferences": {}
}