{
  "_format": "hh-sol-artifact-1",
  "contractName": "FlippandoGameMaster",
  "sourceName": "contracts/FlippandoGameMaster.sol",
  "abi": [
    {
      "inputs": [
        {
          "internalType": "address",
          "name": "flipTokenAddress",
          "type": "address"
        }
      ],
      "stateMutability": "nonpayable",
      "type": "constructor"
    },
    {
      "anonymous": false,
      "inputs": [
        {
          "indexed": true,
          "internalType": "address",
          "name": "owner",
          "type": "address"
        },
        {
          "indexed": true,
          "internalType": "address",
          "name": "approved",
          "type": "address"
        },
        {
          "indexed": true,
          "internalType": "uint256",
          "name": "tokenId",
          "type": "uint256"
        }
      ],
      "name": "Approval",
      "type": "event"
    },
    {
      "anonymous": false,
      "inputs": [
        {
          "indexed": true,
          "internalType": "address",
          "name": "owner",
          "type": "address"
        },
        {
          "indexed": true,
          "internalType": "address",
          "name": "operator",
          "type": "address"
        },
        {
          "indexed": false,
          "internalType": "bool",
          "name": "approved",
          "type": "bool"
        }
      ],
      "name": "ApprovalForAll",
      "type": "event"
    },
    {
      "anonymous": false,
      "inputs": [
        {
          "indexed": true,
          "internalType": "address",
          "name": "from",
          "type": "address"
        },
        {
          "indexed": true,
          "internalType": "address",
          "name": "to",
          "type": "address"
        },
        {
          "indexed": true,
          "internalType": "uint256",
          "name": "tokenId",
          "type": "uint256"
        }
      ],
      "name": "Transfer",
      "type": "event"
    },
    {
      "inputs": [
        {
          "internalType": "address",
          "name": "to",
          "type": "address"
        },
        {
          "internalType": "uint256",
          "name": "tokenId",
          "type": "uint256"
        }
      ],
      "name": "approve",
      "outputs": [],
      "stateMutability": "nonpayable",
      "type": "function"
    },
    {
      "inputs": [
        {
          "internalType": "address",
          "name": "owner",
          "type": "address"
        }
      ],
      "name": "balanceOf",
      "outputs": [
        {
          "internalType": "uint256",
          "name": "",
          "type": "uint256"
        }
      ],
      "stateMutability": "view",
      "type": "function"
    },
    {
      "inputs": [
        {
          "internalType": "address",
          "name": "newOwner",
          "type": "address"
        }
      ],
      "name": "changeOwner",
      "outputs": [],
      "stateMutability": "nonpayable",
      "type": "function"
    },
    {
      "inputs": [
        {
          "internalType": "uint256",
          "name": "boardSize",
          "type": "uint256"
        },
        {
          "internalType": "enum FlippandoGameMaster.GameType",
          "name": "gameType",
          "type": "uint8"
        },
        {
          "internalType": "string",
          "name": "gameTileType",
          "type": "string"
        }
      ],
      "name": "createGame",
      "outputs": [],
      "stateMutability": "nonpayable",
      "type": "function"
    },
    {
      "inputs": [
        {
          "internalType": "string",
          "name": "concatenated",
          "type": "string"
        }
      ],
      "name": "extractGameId",
      "outputs": [
        {
          "internalType": "uint256",
          "name": "",
          "type": "uint256"
        }
      ],
      "stateMutability": "pure",
      "type": "function"
    },
    {
      "inputs": [
        {
          "internalType": "string",
          "name": "gameId",
          "type": "string"
        },
        {
          "internalType": "address",
          "name": "user",
          "type": "address"
        }
      ],
      "name": "finishGame",
      "outputs": [],
      "stateMutability": "nonpayable",
      "type": "function"
    },
    {
      "inputs": [
        {
          "internalType": "uint256",
          "name": "tokenId",
          "type": "uint256"
        }
      ],
      "name": "getApproved",
      "outputs": [
        {
          "internalType": "address",
          "name": "",
          "type": "address"
        }
      ],
      "stateMutability": "view",
      "type": "function"
    },
    {
      "inputs": [
        {
          "internalType": "uint256",
          "name": "gameId",
          "type": "uint256"
        }
      ],
      "name": "getGameMetadata",
      "outputs": [
        {
          "internalType": "string",
          "name": "",
          "type": "string"
        }
      ],
      "stateMutability": "view",
      "type": "function"
    },
    {
      "inputs": [
        {
          "internalType": "address",
          "name": "creator",
          "type": "address"
        }
      ],
      "name": "getNormalGames",
      "outputs": [
        {
          "internalType": "uint256[]",
          "name": "",
          "type": "uint256[]"
        }
      ],
      "stateMutability": "view",
      "type": "function"
    },
    {
      "inputs": [
        {
          "internalType": "address",
          "name": "creator",
          "type": "address"
        }
      ],
      "name": "getSponsoredGames",
      "outputs": [
        {
          "internalType": "uint256[]",
          "name": "",
          "type": "uint256[]"
        }
      ],
      "stateMutability": "view",
      "type": "function"
    },
    {
      "inputs": [
        {
          "internalType": "string",
          "name": "gameId",
          "type": "string"
        },
        {
          "internalType": "uint256",
          "name": "boardSize",
          "type": "uint256"
        }
      ],
      "name": "initializeGame",
      "outputs": [],
      "stateMutability": "nonpayable",
      "type": "function"
    },
    {
      "inputs": [
        {
          "internalType": "address",
          "name": "owner",
          "type": "address"
        },
        {
          "internalType": "address",
          "name": "operator",
          "type": "address"
        }
      ],
      "name": "isApprovedForAll",
      "outputs": [
        {
          "internalType": "bool",
          "name": "",
          "type": "bool"
        }
      ],
      "stateMutability": "view",
      "type": "function"
    },
    {
      "inputs": [],
      "name": "name",
      "outputs": [
        {
          "internalType": "string",
          "name": "",
          "type": "string"
        }
      ],
      "stateMutability": "view",
      "type": "function"
    },
    {
      "inputs": [],
      "name": "owner",
      "outputs": [
        {
          "internalType": "address",
          "name": "",
          "type": "address"
        }
      ],
      "stateMutability": "view",
      "type": "function"
    },
    {
      "inputs": [
        {
          "internalType": "uint256",
          "name": "tokenId",
          "type": "uint256"
        }
      ],
      "name": "ownerOf",
      "outputs": [
        {
          "internalType": "address",
          "name": "",
          "type": "address"
        }
      ],
      "stateMutability": "view",
      "type": "function"
    },
    {
      "inputs": [
        {
          "internalType": "uint256",
          "name": "gameId",
          "type": "uint256"
        }
      ],
      "name": "releaseGame",
      "outputs": [],
      "stateMutability": "nonpayable",
      "type": "function"
    },
    {
      "inputs": [
        {
          "internalType": "address",
          "name": "from",
          "type": "address"
        },
        {
          "internalType": "address",
          "name": "to",
          "type": "address"
        },
        {
          "internalType": "uint256",
          "name": "tokenId",
          "type": "uint256"
        }
      ],
      "name": "safeTransferFrom",
      "outputs": [],
      "stateMutability": "nonpayable",
      "type": "function"
    },
    {
      "inputs": [
        {
          "internalType": "address",
          "name": "from",
          "type": "address"
        },
        {
          "internalType": "address",
          "name": "to",
          "type": "address"
        },
        {
          "internalType": "uint256",
          "name": "tokenId",
          "type": "uint256"
        },
        {
          "internalType": "bytes",
          "name": "_data",
          "type": "bytes"
        }
      ],
      "name": "safeTransferFrom",
      "outputs": [],
      "stateMutability": "nonpayable",
      "type": "function"
    },
    {
      "inputs": [
        {
          "internalType": "address",
          "name": "operator",
          "type": "address"
        },
        {
          "internalType": "bool",
          "name": "approved",
          "type": "bool"
        }
      ],
      "name": "setApprovalForAll",
      "outputs": [],
      "stateMutability": "nonpayable",
      "type": "function"
    },
    {
      "inputs": [
        {
          "internalType": "bytes4",
          "name": "interfaceId",
          "type": "bytes4"
        }
      ],
      "name": "supportsInterface",
      "outputs": [
        {
          "internalType": "bool",
          "name": "",
          "type": "bool"
        }
      ],
      "stateMutability": "view",
      "type": "function"
    },
    {
      "inputs": [],
      "name": "symbol",
      "outputs": [
        {
          "internalType": "string",
          "name": "",
          "type": "string"
        }
      ],
      "stateMutability": "view",
      "type": "function"
    },
    {
      "inputs": [
        {
          "internalType": "uint256",
          "name": "tokenId",
          "type": "uint256"
        }
      ],
      "name": "tokenURI",
      "outputs": [
        {
          "internalType": "string",
          "name": "",
          "type": "string"
        }
      ],
      "stateMutability": "view",
      "type": "function"
    },
    {
      "inputs": [
        {
          "internalType": "address",
          "name": "from",
          "type": "address"
        },
        {
          "internalType": "address",
          "name": "to",
          "type": "address"
        },
        {
          "internalType": "uint256",
          "name": "tokenId",
          "type": "uint256"
        }
      ],
      "name": "transferFrom",
      "outputs": [],
      "stateMutability": "nonpayable",
      "type": "function"
    }
  ],
  "bytecode": "0x60806040523480156200001157600080fd5b50604051620026ef380380620026ef833981016040819052620000349162000183565b604080518082018252601381527f466c697070616e646f47616d654d6173746572000000000000000000000000006020808301918252835180850190945260048452631191d35560e21b9084015281519192916200009591600091620000dd565b508051620000ab906001906020840190620000dd565b5050600c80546001600160a01b039093166001600160a01b0319938416179055506008805490911633179055620001f0565b828054620000eb90620001b3565b90600052602060002090601f0160209004810192826200010f57600085556200015a565b82601f106200012a57805160ff19168380011785556200015a565b828001600101855582156200015a579182015b828111156200015a5782518255916020019190600101906200013d565b50620001689291506200016c565b5090565b5b808211156200016857600081556001016200016d565b60006020828403121562000195578081fd5b81516001600160a01b0381168114620001ac578182fd5b9392505050565b600181811c90821680620001c857607f821691505b60208210811415620001ea57634e487b7160e01b600052602260045260246000fd5b50919050565b6124ef80620002006000396000f3fe608060405234801561001057600080fd5b506004361061012d5760003560e01c806377e0e577116100b357806377e0e577146102375780638da5cb5b1461025757806395d89b411461026a5780639a0b226714610272578063a22cb46514610285578063a6f9dae114610298578063a76805cf146102ab578063b644b42f146102c0578063b88d4fde146102d3578063c87b56dd146102e6578063e2cdab0d146102f9578063e985e9c51461030c57600080fd5b806301ffc9a71461013257806306fdde031461015a578063081812fc1461016f578063095ea7b31461018f5780630b41a661146101a457806321b113f3146101b757806323b872dd146101ca57806342842e0e146101dd57806344f606a1146101f05780636352211e1461020357806370a0823114610216575b600080fd5b610145610140366004611dfd565b61031f565b60405190151581526020015b60405180910390f35b610162610371565b60405161015191906120d3565b61018261017d366004611eeb565b610403565b604051610151919061203e565b6101a261019d366004611dd4565b610490565b005b6101a26101b2366004611ea9565b6105a1565b6101626101c5366004611eeb565b610696565b6101a26101d8366004611ce7565b61075e565b6101a26101eb366004611ce7565b61078f565b6101a26101fe366004611e67565b6107aa565b610182610211366004611eeb565b61084d565b610229610224366004611c9b565b6108c4565b604051908152602001610151565b61024a610245366004611c9b565b61094b565b604051610151919061208f565b600854610182906001600160a01b031681565b6101626109b6565b61024a610280366004611c9b565b6109c5565b6101a2610293366004611d9a565b610a2f565b6101a26102a6366004611c9b565b610a3e565b6102296102b9366004611e35565b6034015190565b6101a26102ce366004611eeb565b610a94565b6101a26102e1366004611d22565b610c1e565b6101626102f4366004611eeb565b610c50565b6101a2610307366004611f1b565b610dc7565b61014561031a366004611cb5565b61122d565b60006001600160e01b031982166380ac58cd60e01b148061035057506001600160e01b03198216635b5e139f60e01b145b8061036b57506301ffc9a760e01b6001600160e01b03198316145b92915050565b60606000805461038090612321565b80601f01602080910402602001604051908101604052809291908181526020018280546103ac90612321565b80156103f95780601f106103ce576101008083540402835291602001916103f9565b820191906000526020600020905b8154815290600101906020018083116103dc57829003601f168201915b5050505050905090565b600061040e8261125b565b6104745760405162461bcd60e51b815260206004820152602c60248201527f4552433732313a20617070726f76656420717565727920666f72206e6f6e657860448201526b34b9ba32b73a103a37b5b2b760a11b60648201526084015b60405180910390fd5b506000908152600460205260409020546001600160a01b031690565b600061049b8261084d565b9050806001600160a01b0316836001600160a01b031614156105095760405162461bcd60e51b815260206004820152602160248201527f4552433732313a20617070726f76616c20746f2063757272656e74206f776e656044820152603960f91b606482015260840161046b565b336001600160a01b03821614806105255750610525813361122d565b6105925760405162461bcd60e51b815260206004820152603860248201527f4552433732313a20617070726f76652063616c6c6572206973206e6f74206f776044820152771b995c881b9bdc88185c1c1c9bdd995908199bdc88185b1b60421b606482015260840161046b565b61059c8383611278565b505050565b60006105ae836034015190565b90506105b98161125b565b6105d55760405162461bcd60e51b815260040161046b90612234565b60408051808201825260078152661cdd185c9d195960ca1b6020808301918252600085815260099091529290922090516106159260049092019190611b52565b50600d5460008281526009602052604090819020905163c463b25b60e01b81526001600160a01b039092169163c463b25b9161065f918791879160039091019033906004016120e6565b600060405180830381600087803b15801561067957600080fd5b505af115801561068d573d6000803e3d6000fd5b50505050505050565b60606106a18261125b565b6106bd5760405162461bcd60e51b815260040161046b90612234565b600082815260096020526040902060020180546106d990612321565b80601f016020809104026020016040519081016040528092919081815260200182805461070590612321565b80156107525780601f1061072757610100808354040283529160200191610752565b820191906000526020600020905b81548152906001019060200180831161073557829003601f168201915b50505050509050919050565b61076833826112e6565b6107845760405162461bcd60e51b815260040161046b90612261565b61059c8383836113af565b61059c83838360405180602001604052806000815250610c1e565b6008546001600160a01b031633146107d45760405162461bcd60e51b815260040161046b906121e6565b60006107e1836034015190565b90506107ec8161125b565b6108085760405162461bcd60e51b815260040161046b90612234565b60408051808201825260068152651cdbdb1d995960d21b6020808301918252600085815260099091529290922090516108479260049092019190611b52565b50505050565b6000818152600260205260408120546001600160a01b03168061036b5760405162461bcd60e51b815260206004820152602960248201527f4552433732313a206f776e657220717565727920666f72206e6f6e657869737460448201526832b73a103a37b5b2b760b91b606482015260840161046b565b60006001600160a01b03821661092f5760405162461bcd60e51b815260206004820152602a60248201527f4552433732313a2062616c616e636520717565727920666f7220746865207a65604482015269726f206164647265737360b01b606482015260840161046b565b506001600160a01b031660009081526003602052604090205490565b6001600160a01b0381166000908152600a602090815260409182902080548351818402810184019094528084526060939283018282801561075257602002820191906000526020600020905b8154815260200190600101908083116109975750505050509050919050565b60606001805461038090612321565b6001600160a01b0381166000908152600b602090815260409182902080548351818402810184019094528084526060939283018282801561075257602002820191906000526020600020908154815260200190600101908083116109975750505050509050919050565b610a3a33838361154b565b5050565b6008546001600160a01b03163314610a685760405162461bcd60e51b815260040161046b906121e6565b600880546001600160a01b039092166001600160a01b03199283168117909155600d8054909216179055565b610a9d8161125b565b610ab95760405162461bcd60e51b815260040161046b90612234565b60008181526009602052604081206005015460ff166001811115610aed57634e487b7160e01b600052602160045260246000fd5b14610b325760405162461bcd60e51b815260206004820152601560248201527411d85b59481a5cc81b9bdd081cdc1bdb9cdbdc9959605a1b604482015260640161046b565b60408051808201825260068152651cdbdb1d995960d21b6020918201526000838152600990915281902090517f8bdfeee14d9ac54fc87c1979a63f61f37dbee3d415836de3ac6baac7802e96cc91610b8f91600490910190611fa0565b60405180910390201415610bde5760405162461bcd60e51b815260206004820152601660248201527511d85b59481a5cc8185b1c9958591e481cdbdb1d995960521b604482015260640161046b565b604080518082018252600781526618dc99585d195960ca1b602080830191825260008581526009909152929092209051610a3a9260049092019190611b52565b610c2833836112e6565b610c445760405162461bcd60e51b815260040161046b90612261565b61084784848484611616565b6060610c5b8261125b565b610cc15760405162461bcd60e51b815260206004820152603160248201527f45524337323155524953746f726167653a2055524920717565727920666f72206044820152703737b732bc34b9ba32b73a103a37b5b2b760791b606482015260840161046b565b60008281526006602052604081208054610cda90612321565b80601f0160208091040260200160405190810160405280929190818152602001828054610d0690612321565b8015610d535780601f10610d2857610100808354040283529160200191610d53565b820191906000526020600020905b815481529060010190602001808311610d3657829003601f168201915b505050505090506000610d7160408051602081019091526000815290565b9050805160001415610d84575092915050565b815115610db6578082604051602001610d9e92919061200f565b60405160208183030381529060405292505050919050565b610dbf84611649565b949350505050565b600060405180610100016040528060d381526020016123e760d3913990506000836001811115610e0757634e487b7160e01b600052602160045260246000fd5b141561107f57600c546040516370a0823160e01b81526004916001600160a01b0316906370a0823190610e3d903390850161203e565b60206040518083038186803b158015610e5557600080fd5b505afa158015610e69573d6000803e3d6000fd5b505050506040513d601f19601f82011682018060405250810190610e8d9190611f03565b1015610ed65760405162461bcd60e51b8152602060048201526018602482015277496e73756666696369656e7420464c495020746f6b656e7360401b604482015260640161046b565b600780549081906000610ee88361235c565b9190505550610ef73382611721565b610f01818361173b565b6040518060e00160405280336001600160a01b03168152602001306001600160a01b031681526020018381526020018481526020016040518060400160405280600781526020016618dc99585d195960ca1b8152508152602001856001811115610f7b57634e487b7160e01b600052602160045260246000fd5b81526004602091820152600083815260098252604090819020835181546001600160a01b039182166001600160a01b0319918216178355858501516001840180549190931691161790559083015180519192610fdf92600285019290910190611b52565b5060608201518051610ffb916003840191602090910190611b52565b5060808201518051611017916004840191602090910190611b52565b5060a082015160058201805460ff19166001838181111561104857634e487b7160e01b600052602160045260246000fd5b021790555060c09190910151600690910155336000908152600a602090815260408220805460018101825590835291200155610847565b6007805490819060006110918361235c565b91905055506110a03382611721565b6110aa818361173b565b6040518060e00160405280336001600160a01b03168152602001336001600160a01b031681526020018381526020018481526020016040518060400160405280600781526020016618dc99585d195960ca1b815250815260200185600181111561112457634e487b7160e01b600052602160045260246000fd5b815260016020918201819052600084815260098352604090819020845181546001600160a01b039182166001600160a01b0319918216178355868601519483018054959092169416939093179092558301518051919261118c92600285019290910190611b52565b50606082015180516111a8916003840191602090910190611b52565b50608082015180516111c4916004840191602090910190611b52565b5060a082015160058201805460ff1916600183818111156111f557634e487b7160e01b600052602160045260246000fd5b021790555060c09190910151600690910155336000908152600b60209081526040822080546001810182559083529120015550505050565b6001600160a01b03918216600090815260056020908152604080832093909416825291909152205460ff1690565b6000908152600260205260409020546001600160a01b0316151590565b600081815260046020526040902080546001600160a01b0319166001600160a01b03841690811790915581906112ad8261084d565b6001600160a01b03167f8c5be1e5ebec7d5bd14f71427d1e84f3dd0314c0f7b2291e5b200ac8c7c3b92560405160405180910390a45050565b60006112f18261125b565b6113525760405162461bcd60e51b815260206004820152602c60248201527f4552433732313a206f70657261746f7220717565727920666f72206e6f6e657860448201526b34b9ba32b73a103a37b5b2b760a11b606482015260840161046b565b600061135d8361084d565b9050806001600160a01b0316846001600160a01b031614806113845750611384818561122d565b80610dbf5750836001600160a01b031661139d84610403565b6001600160a01b031614949350505050565b826001600160a01b03166113c28261084d565b6001600160a01b0316146114265760405162461bcd60e51b815260206004820152602560248201527f4552433732313a207472616e736665722066726f6d20696e636f72726563742060448201526437bbb732b960d91b606482015260840161046b565b6001600160a01b0382166114885760405162461bcd60e51b8152602060048201526024808201527f4552433732313a207472616e7366657220746f20746865207a65726f206164646044820152637265737360e01b606482015260840161046b565b611493600082611278565b6001600160a01b03831660009081526003602052604081208054600192906114bc9084906122de565b90915550506001600160a01b03821660009081526003602052604081208054600192906114ea9084906122b2565b909155505060008181526002602052604080822080546001600160a01b0319166001600160a01b0386811691821790925591518493918716917fddf252ad1be2c89b69c2b068fc378daa952ba7f163c4a11628f55a4df523b3ef91a4505050565b816001600160a01b0316836001600160a01b031614156115a95760405162461bcd60e51b815260206004820152601960248201527822a9219b99189d1030b8383937bb32903a379031b0b63632b960391b604482015260640161046b565b6001600160a01b03838116600081815260056020908152604080832094871680845294825291829020805460ff191686151590811790915591519182527f17307eab39ab6107e8899845ad3d59bd9653f200f220920489ca2b5937696c31910160405180910390a3505050565b6116218484846113af565b61162d848484846117c6565b6108475760405162461bcd60e51b815260040161046b90612194565b60606116548261125b565b6116b85760405162461bcd60e51b815260206004820152602f60248201527f4552433732314d657461646174613a2055524920717565727920666f72206e6f60448201526e3732bc34b9ba32b73a103a37b5b2b760891b606482015260840161046b565b60006116cf60408051602081019091526000815290565b905060008151116116ef576040518060200160405280600081525061171a565b806116f9846118d3565b60405160200161170a92919061200f565b6040516020818303038152906040525b9392505050565b610a3a8282604051806020016040528060008152506119ec565b6117448261125b565b6117a75760405162461bcd60e51b815260206004820152602e60248201527f45524337323155524953746f726167653a2055524920736574206f66206e6f6e60448201526d32bc34b9ba32b73a103a37b5b2b760911b606482015260840161046b565b6000828152600660209081526040909120825161059c92840190611b52565b60006001600160a01b0384163b156118c857604051630a85bd0160e11b81526001600160a01b0385169063150b7a029061180a903390899088908890600401612052565b602060405180830381600087803b15801561182457600080fd5b505af1925050508015611854575060408051601f3d908101601f1916820190925261185191810190611e19565b60015b6118ae573d808015611882576040519150601f19603f3d011682016040523d82523d6000602084013e611887565b606091505b5080516118a65760405162461bcd60e51b815260040161046b90612194565b805181602001fd5b6001600160e01b031916630a85bd0160e11b149050610dbf565b506001949350505050565b6060816118f75750506040805180820190915260018152600360fc1b602082015290565b8160005b8115611921578061190b8161235c565b915061191a9050600a836122ca565b91506118fb565b6000816001600160401b0381111561194957634e487b7160e01b600052604160045260246000fd5b6040519080825280601f01601f191660200182016040528015611973576020820181803683370190505b5090505b8415610dbf576119886001836122de565b9150611995600a86612377565b6119a09060306122b2565b60f81b8183815181106119c357634e487b7160e01b600052603260045260246000fd5b60200101906001600160f81b031916908160001a9053506119e5600a866122ca565b9450611977565b6119f68383611a1f565b611a0360008484846117c6565b61059c5760405162461bcd60e51b815260040161046b90612194565b6001600160a01b038216611a755760405162461bcd60e51b815260206004820181905260248201527f4552433732313a206d696e7420746f20746865207a65726f2061646472657373604482015260640161046b565b611a7e8161125b565b15611acb5760405162461bcd60e51b815260206004820152601c60248201527f4552433732313a20746f6b656e20616c7265616479206d696e74656400000000604482015260640161046b565b6001600160a01b0382166000908152600360205260408120805460019290611af49084906122b2565b909155505060008181526002602052604080822080546001600160a01b0319166001600160a01b03861690811790915590518392907fddf252ad1be2c89b69c2b068fc378daa952ba7f163c4a11628f55a4df523b3ef908290a45050565b828054611b5e90612321565b90600052602060002090601f016020900481019282611b805760008555611bc6565b82601f10611b9957805160ff1916838001178555611bc6565b82800160010185558215611bc6579182015b82811115611bc6578251825591602001919060010190611bab565b50611bd2929150611bd6565b5090565b5b80821115611bd25760008155600101611bd7565b60006001600160401b0380841115611c0557611c056123b7565b604051601f8501601f19908116603f01168101908282118183101715611c2d57611c2d6123b7565b81604052809350858152868686011115611c4657600080fd5b858560208301376000602087830101525050509392505050565b80356001600160a01b0381168114611c7757600080fd5b919050565b600082601f830112611c8c578081fd5b61171a83833560208501611beb565b600060208284031215611cac578081fd5b61171a82611c60565b60008060408385031215611cc7578081fd5b611cd083611c60565b9150611cde60208401611c60565b90509250929050565b600080600060608486031215611cfb578081fd5b611d0484611c60565b9250611d1260208501611c60565b9150604084013590509250925092565b60008060008060808587031215611d37578081fd5b611d4085611c60565b9350611d4e60208601611c60565b92506040850135915060608501356001600160401b03811115611d6f578182fd5b8501601f81018713611d7f578182fd5b611d8e87823560208401611beb565b91505092959194509250565b60008060408385031215611dac578182fd5b611db583611c60565b915060208301358015158114611dc9578182fd5b809150509250929050565b60008060408385031215611de6578182fd5b611def83611c60565b946020939093013593505050565b600060208284031215611e0e578081fd5b813561171a816123cd565b600060208284031215611e2a578081fd5b815161171a816123cd565b600060208284031215611e46578081fd5b81356001600160401b03811115611e5b578182fd5b610dbf84828501611c7c565b60008060408385031215611e79578182fd5b82356001600160401b03811115611e8e578283fd5b611e9a85828601611c7c565b925050611cde60208401611c60565b60008060408385031215611ebb578182fd5b82356001600160401b03811115611ed0578283fd5b611edc85828601611c7c565b95602094909401359450505050565b600060208284031215611efc578081fd5b5035919050565b600060208284031215611f14578081fd5b5051919050565b600080600060608486031215611f2f578081fd5b83359250602084013560028110611f44578182fd5b915060408401356001600160401b03811115611f5e578182fd5b611f6a86828701611c7c565b9150509250925092565b60008151808452611f8c8160208601602086016122f5565b601f01601f19169290920160200192915050565b6000808354611fae81612321565b60018281168015611fc65760018114611fd757612003565b60ff19841687528287019450612003565b8786526020808720875b85811015611ffa5781548a820152908401908201611fe1565b50505082870194505b50929695505050505050565b600083516120218184602088016122f5565b8351908301906120358183602088016122f5565b01949350505050565b6001600160a01b0391909116815260200190565b6001600160a01b038581168252841660208201526040810183905260806060820181905260009061208590830184611f74565b9695505050505050565b6020808252825182820181905260009190848201906040850190845b818110156120c7578351835292840192918401916001016120ab565b50909695505050505050565b60208152600061171a6020830184611f74565b6080815260006120f96080830187611f74565b60208681850152838203604085015282865461211481612321565b8085526001828116801561212f57600181146121435761216e565b60ff1984168787015260408701945061216e565b8a8852858820885b8481101561216657815489820189015290830190870161214b565b880187019550505b5050506001600160a01b038716606087015250925061218b915050565b95945050505050565b60208082526032908201527f4552433732313a207472616e7366657220746f206e6f6e20455243373231526560408201527131b2b4bb32b91034b6b83632b6b2b73a32b960711b606082015260800190565b6020808252602e908201527f4f6e6c792074686520636f6e7472616374206f776e65722063616e2063616c6c60408201526d103a3434b990333ab731ba34b7b760911b606082015260800190565b60208082526013908201527211d85b5948191bd95cc81b9bdd08195e1a5cdd606a1b604082015260600190565b60208082526031908201527f4552433732313a207472616e736665722063616c6c6572206973206e6f74206f6040820152701ddb995c881b9bdc88185c1c1c9bdd9959607a1b606082015260800190565b600082198211156122c5576122c561238b565b500190565b6000826122d9576122d96123a1565b500490565b6000828210156122f0576122f061238b565b500390565b60005b838110156123105781810151838201526020016122f8565b838111156108475750506000910152565b600181811c9082168061233557607f821691505b6020821081141561235657634e487b7160e01b600052602260045260246000fd5b50919050565b60006000198214156123705761237061238b565b5060010190565b600082612386576123866123a1565b500690565b634e487b7160e01b600052601160045260246000fd5b634e487b7160e01b600052601260045260246000fd5b634e487b7160e01b600052604160045260246000fd5b6001600160e01b0319811681146123e357600080fd5b5056fe7b226e616d65223a2022466c697070616e646f2047616d65222c20226465736372697074696f6e223a20224573746f7920666c697070616e646f20656e20636f6c6f726573222c2022737461747573223a202263726561746564222c2022696d616765223a2022646174613a696d6167652f7376672b786d6c3b6261736536342c50484e325a79423361575230614430694d6a55694947686c6157646f644430694d6a556949485a705a58644362336739496a416949475a706247773949694d774d4441774d4441694943382b43673d3d227da26469706673582212208d87bc7893428757d72d9224bee9a458a4f5fb627a8d1cef5e75994e6cc6175264736f6c63430008040033",
  "linkReferences": {},
  "deployedLinkReferences": {}
}