{
  "_format": "hh-sol-artifact-1",
  "contractName": "Flippando",
  "sourceName": "contracts/Flippando.sol",
  "abi": [
    {
      "inputs": [
        {
          "internalType": "address",
          "name": "_svgAddress",
          "type": "address"
        },
        {
          "internalType": "address",
          "name": "_flipAddress",
          "type": "address"
        },
        {
          "internalType": "address",
          "name": "_flippandoBundlerAddress",
          "type": "address"
        },
        {
          "internalType": "address",
          "name": "_flippandoGameMasterAddress",
          "type": "address"
        }
      ],
      "stateMutability": "nonpayable",
      "type": "constructor"
    },
    {
      "anonymous": false,
      "inputs": [
        {
          "indexed": true,
          "internalType": "address",
          "name": "owner",
          "type": "address"
        },
        {
          "indexed": true,
          "internalType": "address",
          "name": "approved",
          "type": "address"
        },
        {
          "indexed": true,
          "internalType": "uint256",
          "name": "tokenId",
          "type": "uint256"
        }
      ],
      "name": "Approval",
      "type": "event"
    },
    {
      "anonymous": false,
      "inputs": [
        {
          "indexed": true,
          "internalType": "address",
          "name": "owner",
          "type": "address"
        },
        {
          "indexed": true,
          "internalType": "address",
          "name": "operator",
          "type": "address"
        },
        {
          "indexed": false,
          "internalType": "bool",
          "name": "approved",
          "type": "bool"
        }
      ],
      "name": "ApprovalForAll",
      "type": "event"
    },
    {
      "anonymous": false,
      "inputs": [
        {
          "components": [
            {
              "internalType": "uint256",
              "name": "boardWidth",
              "type": "uint256"
            },
            {
              "internalType": "uint256",
              "name": "boardHeight",
              "type": "uint256"
            },
            {
              "internalType": "uint256[]",
              "name": "buildingBlocks",
              "type": "uint256[]"
            }
          ],
          "indexed": false,
          "internalType": "struct Artwork",
          "name": "createdArtwork",
          "type": "tuple"
        }
      ],
      "name": "ArtworkCreated",
      "type": "event"
    },
    {
      "anonymous": false,
      "inputs": [
        {
          "indexed": false,
          "internalType": "string",
          "name": "id",
          "type": "string"
        },
        {
          "components": [
            {
              "internalType": "uint8[]",
              "name": "board",
              "type": "uint8[]"
            },
            {
              "internalType": "uint8[]",
              "name": "solvedBoard",
              "type": "uint8[]"
            },
            {
              "internalType": "string",
              "name": "gameLevel",
              "type": "string"
            },
            {
              "internalType": "string",
              "name": "gameType",
              "type": "string"
            },
            {
              "internalType": "address",
              "name": "player",
              "type": "address"
            },
            {
              "internalType": "string",
              "name": "id",
              "type": "string"
            },
            {
              "internalType": "uint256[]",
              "name": "gameTiles",
              "type": "uint256[]"
            }
          ],
          "indexed": false,
          "internalType": "struct Flippando.Game",
          "name": "game",
          "type": "tuple"
        },
        {
          "indexed": true,
          "internalType": "address",
          "name": "player",
          "type": "address"
        }
      ],
      "name": "GameCreated",
      "type": "event"
    },
    {
      "anonymous": false,
      "inputs": [
        {
          "indexed": false,
          "internalType": "string",
          "name": "id",
          "type": "string"
        },
        {
          "components": [
            {
              "internalType": "uint8[]",
              "name": "board",
              "type": "uint8[]"
            },
            {
              "internalType": "uint8[]",
              "name": "solvedBoard",
              "type": "uint8[]"
            },
            {
              "internalType": "string",
              "name": "gameLevel",
              "type": "string"
            },
            {
              "internalType": "string",
              "name": "gameType",
              "type": "string"
            },
            {
              "internalType": "address",
              "name": "player",
              "type": "address"
            },
            {
              "internalType": "string",
              "name": "id",
              "type": "string"
            },
            {
              "internalType": "uint256[]",
              "name": "gameTiles",
              "type": "uint256[]"
            }
          ],
          "indexed": false,
          "internalType": "struct Flippando.Game",
          "name": "game",
          "type": "tuple"
        }
      ],
      "name": "GameSolved",
      "type": "event"
    },
    {
      "anonymous": false,
      "inputs": [
        {
          "indexed": true,
          "internalType": "string",
          "name": "id",
          "type": "string"
        },
        {
          "components": [
            {
              "internalType": "uint8[]",
              "name": "board",
              "type": "uint8[]"
            },
            {
              "internalType": "uint8[]",
              "name": "solvedBoard",
              "type": "uint8[]"
            },
            {
              "internalType": "string",
              "name": "gameLevel",
              "type": "string"
            },
            {
              "internalType": "string",
              "name": "gameType",
              "type": "string"
            },
            {
              "internalType": "address",
              "name": "player",
              "type": "address"
            },
            {
              "internalType": "string",
              "name": "id",
              "type": "string"
            },
            {
              "internalType": "uint256[]",
              "name": "gameTiles",
              "type": "uint256[]"
            }
          ],
          "indexed": false,
          "internalType": "struct Flippando.Game",
          "name": "game",
          "type": "tuple"
        },
        {
          "indexed": false,
          "internalType": "uint32[2]",
          "name": "positions",
          "type": "uint32[2]"
        }
      ],
      "name": "GameState",
      "type": "event"
    },
    {
      "anonymous": false,
      "inputs": [
        {
          "indexed": false,
          "internalType": "string",
          "name": "id",
          "type": "string"
        },
        {
          "indexed": false,
          "internalType": "uint256",
          "name": "tokenId",
          "type": "uint256"
        }
      ],
      "name": "NFTCreated",
      "type": "event"
    },
    {
      "anonymous": false,
      "inputs": [
        {
          "indexed": true,
          "internalType": "address",
          "name": "from",
          "type": "address"
        },
        {
          "indexed": true,
          "internalType": "address",
          "name": "to",
          "type": "address"
        },
        {
          "indexed": true,
          "internalType": "uint256",
          "name": "tokenId",
          "type": "uint256"
        }
      ],
      "name": "Transfer",
      "type": "event"
    },
    {
      "inputs": [
        {
          "internalType": "address",
          "name": "to",
          "type": "address"
        },
        {
          "internalType": "uint256",
          "name": "tokenId",
          "type": "uint256"
        }
      ],
      "name": "approve",
      "outputs": [],
      "stateMutability": "nonpayable",
      "type": "function"
    },
    {
      "inputs": [
        {
          "internalType": "address",
          "name": "owner",
          "type": "address"
        }
      ],
      "name": "balanceOf",
      "outputs": [
        {
          "internalType": "uint256",
          "name": "",
          "type": "uint256"
        }
      ],
      "stateMutability": "view",
      "type": "function"
    },
    {
      "inputs": [
        {
          "internalType": "uint8[]",
          "name": "arr",
          "type": "uint8[]"
        }
      ],
      "name": "boardHasZeroValues",
      "outputs": [
        {
          "internalType": "bool",
          "name": "",
          "type": "bool"
        }
      ],
      "stateMutability": "pure",
      "type": "function"
    },
    {
      "inputs": [
        {
          "internalType": "string",
          "name": "id",
          "type": "string"
        }
      ],
      "name": "create_nft",
      "outputs": [],
      "stateMutability": "nonpayable",
      "type": "function"
    },
    {
      "inputs": [
        {
          "internalType": "string",
          "name": "gameType",
          "type": "string"
        }
      ],
      "name": "create_single_test_nft",
      "outputs": [],
      "stateMutability": "nonpayable",
      "type": "function"
    },
    {
      "inputs": [],
      "name": "flip",
      "outputs": [
        {
          "internalType": "contract IFLIP",
          "name": "",
          "type": "address"
        }
      ],
      "stateMutability": "view",
      "type": "function"
    },
    {
      "inputs": [
        {
          "internalType": "string",
          "name": "id",
          "type": "string"
        },
        {
          "internalType": "uint32[2]",
          "name": "boardPositions",
          "type": "uint32[2]"
        }
      ],
      "name": "flip_tiles",
      "outputs": [],
      "stateMutability": "nonpayable",
      "type": "function"
    },
    {
      "inputs": [],
      "name": "flippandoBundler",
      "outputs": [
        {
          "internalType": "contract IFLIPPANDOBUNDLER",
          "name": "",
          "type": "address"
        }
      ],
      "stateMutability": "view",
      "type": "function"
    },
    {
      "inputs": [],
      "name": "flippandoGameMaster",
      "outputs": [
        {
          "internalType": "contract IFLIPPANDOGAMEMASTER",
          "name": "",
          "type": "address"
        }
      ],
      "stateMutability": "view",
      "type": "function"
    },
    {
      "inputs": [
        {
          "internalType": "string",
          "name": "",
          "type": "string"
        }
      ],
      "name": "games",
      "outputs": [
        {
          "internalType": "string",
          "name": "gameLevel",
          "type": "string"
        },
        {
          "internalType": "string",
          "name": "gameType",
          "type": "string"
        },
        {
          "internalType": "address",
          "name": "player",
          "type": "address"
        },
        {
          "internalType": "string",
          "name": "id",
          "type": "string"
        }
      ],
      "stateMutability": "view",
      "type": "function"
    },
    {
      "inputs": [
        {
          "internalType": "uint256",
          "name": "tokenId",
          "type": "uint256"
        },
        {
          "internalType": "uint8[]",
          "name": "testBoard",
          "type": "uint8[]"
        },
        {
          "internalType": "string",
          "name": "gameType",
          "type": "string"
        }
      ],
      "name": "generateTestTokenURI",
      "outputs": [
        {
          "internalType": "string",
          "name": "",
          "type": "string"
        }
      ],
      "stateMutability": "view",
      "type": "function"
    },
    {
      "inputs": [
        {
          "internalType": "uint256",
          "name": "tokenId",
          "type": "uint256"
        },
        {
          "internalType": "string",
          "name": "id",
          "type": "string"
        }
      ],
      "name": "generateTokenURI",
      "outputs": [
        {
          "internalType": "string",
          "name": "",
          "type": "string"
        }
      ],
      "stateMutability": "view",
      "type": "function"
    },
    {
      "inputs": [
        {
          "internalType": "uint256",
          "name": "tokenId",
          "type": "uint256"
        }
      ],
      "name": "getApproved",
      "outputs": [
        {
          "internalType": "address",
          "name": "",
          "type": "address"
        }
      ],
      "stateMutability": "view",
      "type": "function"
    },
    {
      "inputs": [],
      "name": "getUserNFTs",
      "outputs": [
        {
          "internalType": "uint256[]",
          "name": "",
          "type": "uint256[]"
        }
      ],
      "stateMutability": "view",
      "type": "function"
    },
    {
      "inputs": [
        {
          "internalType": "uint256",
          "name": "",
          "type": "uint256"
        }
      ],
      "name": "inTransit",
      "outputs": [
        {
          "internalType": "bool",
          "name": "",
          "type": "bool"
        }
      ],
      "stateMutability": "view",
      "type": "function"
    },
    {
      "inputs": [
        {
          "internalType": "string",
          "name": "id",
          "type": "string"
        },
        {
          "internalType": "uint256",
          "name": "boardSize",
          "type": "uint256"
        },
        {
          "internalType": "string",
          "name": "gameType",
          "type": "string"
        },
        {
          "internalType": "address",
          "name": "gamePlayer",
          "type": "address"
        }
      ],
      "name": "initialize_game",
      "outputs": [],
      "stateMutability": "nonpayable",
      "type": "function"
    },
    {
      "inputs": [
        {
          "internalType": "address",
          "name": "owner",
          "type": "address"
        },
        {
          "internalType": "address",
          "name": "operator",
          "type": "address"
        }
      ],
      "name": "isApprovedForAll",
      "outputs": [
        {
          "internalType": "bool",
          "name": "",
          "type": "bool"
        }
      ],
      "stateMutability": "view",
      "type": "function"
    },
    {
      "inputs": [
        {
          "internalType": "uint256",
          "name": "boardWidth",
          "type": "uint256"
        },
        {
          "internalType": "uint256",
          "name": "boardHeight",
          "type": "uint256"
        },
        {
          "internalType": "uint256[]",
          "name": "tokenIds",
          "type": "uint256[]"
        }
      ],
      "name": "makeArt",
      "outputs": [],
      "stateMutability": "nonpayable",
      "type": "function"
    },
    {
      "inputs": [],
      "name": "name",
      "outputs": [
        {
          "internalType": "string",
          "name": "",
          "type": "string"
        }
      ],
      "stateMutability": "view",
      "type": "function"
    },
    {
      "inputs": [
        {
          "internalType": "uint256",
          "name": "tokenId",
          "type": "uint256"
        }
      ],
      "name": "ownerOf",
      "outputs": [
        {
          "internalType": "address",
          "name": "",
          "type": "address"
        }
      ],
      "stateMutability": "view",
      "type": "function"
    },
    {
      "inputs": [
        {
          "internalType": "address",
          "name": "from",
          "type": "address"
        },
        {
          "internalType": "address",
          "name": "to",
          "type": "address"
        },
        {
          "internalType": "uint256",
          "name": "tokenId",
          "type": "uint256"
        }
      ],
      "name": "safeTransferFrom",
      "outputs": [],
      "stateMutability": "nonpayable",
      "type": "function"
    },
    {
      "inputs": [
        {
          "internalType": "address",
          "name": "from",
          "type": "address"
        },
        {
          "internalType": "address",
          "name": "to",
          "type": "address"
        },
        {
          "internalType": "uint256",
          "name": "tokenId",
          "type": "uint256"
        },
        {
          "internalType": "bytes",
          "name": "_data",
          "type": "bytes"
        }
      ],
      "name": "safeTransferFrom",
      "outputs": [],
      "stateMutability": "nonpayable",
      "type": "function"
    },
    {
      "inputs": [
        {
          "internalType": "address",
          "name": "operator",
          "type": "address"
        },
        {
          "internalType": "bool",
          "name": "approved",
          "type": "bool"
        }
      ],
      "name": "setApprovalForAll",
      "outputs": [],
      "stateMutability": "nonpayable",
      "type": "function"
    },
    {
      "inputs": [
        {
          "internalType": "bytes4",
          "name": "interfaceId",
          "type": "bytes4"
        }
      ],
      "name": "supportsInterface",
      "outputs": [
        {
          "internalType": "bool",
          "name": "",
          "type": "bool"
        }
      ],
      "stateMutability": "view",
      "type": "function"
    },
    {
      "inputs": [],
      "name": "svg",
      "outputs": [
        {
          "internalType": "contract ISVG",
          "name": "",
          "type": "address"
        }
      ],
      "stateMutability": "view",
      "type": "function"
    },
    {
      "inputs": [],
      "name": "symbol",
      "outputs": [
        {
          "internalType": "string",
          "name": "",
          "type": "string"
        }
      ],
      "stateMutability": "view",
      "type": "function"
    },
    {
      "inputs": [
        {
          "internalType": "uint256",
          "name": "index",
          "type": "uint256"
        }
      ],
      "name": "tokenByIndex",
      "outputs": [
        {
          "internalType": "uint256",
          "name": "",
          "type": "uint256"
        }
      ],
      "stateMutability": "view",
      "type": "function"
    },
    {
      "inputs": [
        {
          "internalType": "address",
          "name": "owner",
          "type": "address"
        },
        {
          "internalType": "uint256",
          "name": "index",
          "type": "uint256"
        }
      ],
      "name": "tokenOfOwnerByIndex",
      "outputs": [
        {
          "internalType": "uint256",
          "name": "",
          "type": "uint256"
        }
      ],
      "stateMutability": "view",
      "type": "function"
    },
    {
      "inputs": [
        {
          "internalType": "uint256",
          "name": "tokenId",
          "type": "uint256"
        }
      ],
      "name": "tokenURI",
      "outputs": [
        {
          "internalType": "string",
          "name": "",
          "type": "string"
        }
      ],
      "stateMutability": "view",
      "type": "function"
    },
    {
      "inputs": [],
      "name": "totalSupply",
      "outputs": [
        {
          "internalType": "uint256",
          "name": "",
          "type": "uint256"
        }
      ],
      "stateMutability": "view",
      "type": "function"
    },
    {
      "inputs": [
        {
          "internalType": "address",
          "name": "from",
          "type": "address"
        },
        {
          "internalType": "address",
          "name": "to",
          "type": "address"
        },
        {
          "internalType": "uint256",
          "name": "tokenId",
          "type": "uint256"
        }
      ],
      "name": "transferFrom",
      "outputs": [],
      "stateMutability": "nonpayable",
      "type": "function"
    }
  ],
  "bytecode": "0x60806040523480156200001157600080fd5b50604051620060f4380380620060f48339810160408190526200003491620001c4565b6040805180820182526012815271466c697070616e646f20556e69766572736560701b6020808301918252835180850190945260048452630464c49560e41b9084015281519192916200008a9160009162000101565b508051620000a090600190602084019062000101565b505060108054336001600160a01b031991821617909155600b805482166001600160a01b03978816179055600c805482169587169590951790945550600d8054841692851692909217909155600e805490921692169190911790556200025d565b8280546200010f9062000220565b90600052602060002090601f0160209004810192826200013357600085556200017e565b82601f106200014e57805160ff19168380011785556200017e565b828001600101855582156200017e579182015b828111156200017e57825182559160200191906001019062000161565b506200018c92915062000190565b5090565b5b808211156200018c576000815560010162000191565b80516001600160a01b0381168114620001bf57600080fd5b919050565b60008060008060808587031215620001da578384fd5b620001e585620001a7565b9350620001f560208601620001a7565b92506200020560408601620001a7565b91506200021560608601620001a7565b905092959194509250565b600181811c908216806200023557607f821691505b602082108114156200025757634e487b7160e01b600052602260045260246000fd5b50919050565b615e87806200026d6000396000f3fe608060405234801561001057600080fd5b50600436106101955760003560e01c806370a08231116100ef578063c463b25b11610092578063c463b25b14610394578063c87b56dd146103a7578063cb5e1978146103ba578063cde4efa9146103cd578063e817b439146103e0578063e985e9c5146103f3578063ec16207f14610406578063fdc5ab8e1461041957600080fd5b806370a082311461030757806395d89b411461031a578063a22cb46514610322578063a2a94fe714610335578063a3bab28614610348578063b2eb872c1461035b578063b88d4fde1461036e578063bd85f55f1461038157600080fd5b806301ffc9a71461019a57806306fdde03146101c2578063081812fc146101d7578063095ea7b31461020257806309b089fe1461021757806318160ddd1461022a57806323b872dd1461023c5780632f745c591461024f578063310c1f611461026257806342842e0e1461027557806343a2d4b0146102885780634f6ccce7146102ab5780636352211e146102be578063642cb825146102d15780636d20931a146102e4575b600080fd5b6101ad6101a8366004614859565b61042e565b60405190151581526020015b60405180910390f35b6101ca61043f565b6040516101b99190615968565b6101ea6101e5366004614b24565b6104d1565b6040516001600160a01b0390911681526020016101b9565b6102156102103660046147e2565b61055e565b005b610215610225366004614935565b61066f565b6009545b6040519081526020016101b9565b61021561024a3660046146f9565b6113f6565b61022e61025d3660046147e2565b611427565b6101ca610270366004614b3c565b6114bd565b6102156102833660046146f9565b6115b4565b6101ad610296366004614b24565b60126020526000908152604090205460ff1681565b61022e6102b9366004614b24565b6115cf565b6101ea6102cc366004614b24565b611670565b6101ca6102df366004614ba5565b6116e7565b6102f76102f2366004614891565b611b0d565b6040516101b994939291906159a5565b61022e6103153660046146ad565b611ce9565b6101ca611d70565b6102156103303660046147ac565b611d7f565b610215610343366004614be9565b611d8e565b610215610356366004614891565b6122fc565b610215610369366004614891565b612622565b61021561037c366004614734565b612ac7565b600b546101ea906001600160a01b031681565b6102156103a23660046149d4565b612aff565b6101ca6103b5366004614b24565b612fd3565b600d546101ea906001600160a01b031681565b600c546101ea906001600160a01b031681565b6101ad6103ee36600461480b565b612fde565b6101ad6104013660046146c7565b613042565b600e546101ea906001600160a01b031681565b610421613070565b6040516101b99190615905565b60006104398261312c565b92915050565b60606000805461044e90615d3e565b80601f016020809104026020016040519081016040528092919081815260200182805461047a90615d3e565b80156104c75780601f1061049c576101008083540402835291602001916104c7565b820191906000526020600020905b8154815290600101906020018083116104aa57829003601f168201915b5050505050905090565b60006104dc82613151565b6105425760405162461bcd60e51b815260206004820152602c60248201527f4552433732313a20617070726f76656420717565727920666f72206e6f6e657860448201526b34b9ba32b73a103a37b5b2b760a11b60648201526084015b60405180910390fd5b506000908152600460205260409020546001600160a01b031690565b600061056982611670565b9050806001600160a01b0316836001600160a01b031614156105d75760405162461bcd60e51b815260206004820152602160248201527f4552433732313a20617070726f76616c20746f2063757272656e74206f776e656044820152603960f91b6064820152608401610539565b336001600160a01b03821614806105f357506105f38133613042565b6106605760405162461bcd60e51b815260206004820152603860248201527f4552433732313a20617070726f76652063616c6c6572206973206e6f74206f776044820152771b995c881b9bdc88185c1c1c9bdd995908199bdc88185b1b60421b6064820152608401610539565b61066a838361316e565b505050565b60006001600160a01b031660118360405161068a9190615483565b908152604051908190036020019020600401546001600160a01b031614156106ea5760405162461bcd60e51b815260206004820152601360248201527211d85b5948191bd95cc81b9bdd08195e1a5cdd606a1b6044820152606401610539565b6011826040516106fa9190615483565b90815260405190819003602001902054815163ffffffff161061072f5760405162461bcd60e51b815260040161053990615a91565b60118260405161073f9190615483565b90815260405160209181900382019020549082015163ffffffff16106107775760405162461bcd60e51b815260040161053990615a91565b600080600460118560405161078c9190615483565b908152604051908190036020019020546107a69190615cc8565b604080514260208201526001600160601b03193360601b16918101919091526054016040516020818303038152906040528051906020012060001c6107eb9190615d94565b6107f6906001615cb0565b9150600460118560405161080a9190615483565b908152604051908190036020019020546108249190615cc8565b61083042610428615cb0565b433360405160200161086293929190928352602083019190915260601b6001600160601b031916604082015260540190565b6040516020818303038152906040528051906020012060001c6108859190615d94565b610890906001615cb0565b90506011846040516108a29190615483565b908152604051908190036020019020836000602002015163ffffffff16815481106108dd57634e487b7160e01b600052603260045260246000fd5b60009182526020918290209181049091015460ff601f9092166101000a9004166109cd576011846040516109119190615483565b90815260405190819003602001902060060161092e600184615cfb565b8154811061094c57634e487b7160e01b600052603260045260246000fd5b90600052602060002001546011856040516109679190615483565b908152604051908190036020019020846000602002015163ffffffff16815481106109a257634e487b7160e01b600052603260045260246000fd5b90600052602060002090602091828204019190066101000a81548160ff021916908360ff1602179055505b6011846040516109dd9190615483565b908152604051908190036020019020836001602002015163ffffffff1681548110610a1857634e487b7160e01b600052603260045260246000fd5b60009182526020918290209181049091015460ff601f9092166101000a900416610b0857601184604051610a4c9190615483565b908152604051908190036020019020600601610a69600183615cfb565b81548110610a8757634e487b7160e01b600052603260045260246000fd5b9060005260206000200154601185604051610aa29190615483565b908152604051908190036020019020846001602002015163ffffffff1681548110610add57634e487b7160e01b600052603260045260246000fd5b90600052602060002090602091828204019190066101000a81548160ff021916908360ff1602179055505b601184604051610b189190615483565b908152604051908190036020019020836001602002015163ffffffff1681548110610b5357634e487b7160e01b600052603260045260246000fd5b90600052602060002090602091828204019190069054906101000a900460ff1660ff16601185604051610b869190615483565b908152604051908190036020019020846000602002015163ffffffff1681548110610bc157634e487b7160e01b600052603260045260246000fd5b60009182526020918290209181049091015460ff601f9092166101000a9004161415610dcb57601184604051610bf79190615483565b908152604051908190036020019020836000602002015163ffffffff1681548110610c3257634e487b7160e01b600052603260045260246000fd5b90600052602060002090602091828204019190069054906101000a900460ff16601185604051610c629190615483565b908152604051908190036020019020600101846000602002015163ffffffff1681548110610ca057634e487b7160e01b600052603260045260246000fd5b90600052602060002090602091828204019190066101000a81548160ff021916908360ff160217905550601184604051610cda9190615483565b908152604051908190036020019020836001602002015163ffffffff1681548110610d1557634e487b7160e01b600052603260045260246000fd5b90600052602060002090602091828204019190069054906101000a900460ff16601185604051610d459190615483565b908152602001604051809103902060010184600160028110610d7757634e487b7160e01b600052603260045260246000fd5b602002015163ffffffff1681548110610da057634e487b7160e01b600052603260045260246000fd5b90600052602060002090602091828204019190066101000a81548160ff021916908360ff1602179055505b6000610df5601186604051610de09190615483565b908152604051908190036020019020546131dc565b90506000805b601187604051610e0b9190615483565b90815260405190819003602001902054811015610ea657601187604051610e329190615483565b90815260200160405180910390206001018181548110610e6257634e487b7160e01b600052603260045260246000fd5b60009182526020918290209181049091015460ff601f9092166101000a900416610e9457610e91826001615cb0565b91505b80610e9e81615d79565b915050610dfb565b508181116111e457601186604051610ebe9190615483565b908152604051908190036020019020856001602002015163ffffffff1681548110610ef957634e487b7160e01b600052603260045260246000fd5b90600052602060002090602091828204019190069054906101000a900460ff1660ff16601187604051610f2c9190615483565b908152604051908190036020019020866000602002015163ffffffff1681548110610f6757634e487b7160e01b600052603260045260246000fd5b60009182526020918290209181049091015460ff601f9092166101000a900416146111e457601186604051610f9c9190615483565b908152604051908190036020019020856001602002015163ffffffff1681548110610fd757634e487b7160e01b600052603260045260246000fd5b90600052602060002090602091828204019190069054906101000a900460ff166011876040516110079190615483565b908152604051908190036020019020866000602002015163ffffffff168154811061104257634e487b7160e01b600052603260045260246000fd5b90600052602060002090602091828204019190066101000a81548160ff021916908360ff16021790555060118660405161107c9190615483565b908152604051908190036020019020856000602002015163ffffffff16815481106110b757634e487b7160e01b600052603260045260246000fd5b90600052602060002090602091828204019190069054906101000a900460ff166011876040516110e79190615483565b90815260200160405180910390206001018660016002811061111957634e487b7160e01b600052603260045260246000fd5b602002015163ffffffff168154811061114257634e487b7160e01b600052603260045260246000fd5b90600052602060002090602091828204019190066101000a81548160ff021916908360ff160217905560118760405161117b9190615483565b908152604051908190036020019020600101866000602002015163ffffffff16815481106111b957634e487b7160e01b600052603260045260246000fd5b90600052602060002090602091828204019190066101000a81548160ff021916908360ff1602179055505b856040516111f29190615483565b60405180910390207f6577aff1d72bca1d385ac76148865f215947d38ef437ea0deeb5496ce36aa20d60118860405161122b9190615483565b908152604051908190036020018120611245918990615b68565b60405180910390a2506000805b6011876040516112629190615483565b908152604051908190036020019020548110156112fd576011876040516112899190615483565b908152602001604051809103902060010181815481106112b957634e487b7160e01b600052603260045260246000fd5b60009182526020918290209181049091015460ff601f9092166101000a9004166112eb576112e8826001615cb0565b91505b806112f581615d79565b915050611252565b50806113ee577f7043358b708d80879132e3a6c6cdac917ba587145eef870c20bc31ba92dbcfd7866011886040516113359190615483565b90815260405190819003602001812061134e92916159f8565b60405180910390a1600e546040516001600160a01b03909116906344f606a190889060119061137e908390615483565b9081526040519081900360200181206004908101546001600160e01b031960e086901b1683526113bb93926001600160a01b03909116910161597b565b600060405180830381600087803b1580156113d557600080fd5b505af11580156113e9573d6000803e3d6000fd5b505050505b505050505050565b6114003382613233565b61141c5760405162461bcd60e51b815260040161053990615ae8565b61066a8383836132fd565b600061143283611ce9565b82106114945760405162461bcd60e51b815260206004820152602b60248201527f455243373231456e756d657261626c653a206f776e657220696e646578206f7560448201526a74206f6620626f756e647360a81b6064820152608401610539565b506001600160a01b03919091166000908152600760209081526040808320938352929052205490565b600b5460405163e248d45760e01b8152606091631dcd6500916000916001600160a01b03169063e248d4579084906114fb9089908990600401615918565b60006040518083038187803b15801561151357600080fd5b5086fa158015611527573d6000803e3d6000fd5b50505050506040513d6000823e601f3d908101601f1916820160405261155091908101906148c3565b90506000611586611560886134a4565b836040516020016115729291906156d4565b6040516020818303038152906040526135bd565b905080604051602001611599919061584d565b60405160208183030381529060405293505050509392505050565b61066a83838360405180602001604052806000815250612ac7565b60006115da60095490565b821061163d5760405162461bcd60e51b815260206004820152602c60248201527f455243373231456e756d657261626c653a20676c6f62616c20696e646578206f60448201526b7574206f6620626f756e647360a01b6064820152608401610539565b6009828154811061165e57634e487b7160e01b600052603260045260246000fd5b90600052602060002001549050919050565b6000818152600260205260408120546001600160a01b0316806104395760405162461bcd60e51b815260206004820152602960248201527f4552433732313a206f776e657220717565727920666f72206e6f6e657869737460448201526832b73a103a37b5b2b760b91b6064820152608401610539565b606060006011836040516116fb9190615483565b90815260408051918290036020908101832080546101009281028501830190935260e084018381529092849284919084018282801561177757602002820191906000526020600020906000905b825461010083900a900460ff168152602060019283018181049485019490930390920291018084116117485790505b50505050508152602001600182018054806020026020016040519081016040528092919081815260200182805480156117ed57602002820191906000526020600020906000905b825461010083900a900460ff168152602060019283018181049485019490930390920291018084116117be5790505b5050505050815260200160028201805461180690615d3e565b80601f016020809104026020016040519081016040528092919081815260200182805461183290615d3e565b801561187f5780601f106118545761010080835404028352916020019161187f565b820191906000526020600020905b81548152906001019060200180831161186257829003601f168201915b5050505050815260200160038201805461189890615d3e565b80601f01602080910402602001604051908101604052809291908181526020018280546118c490615d3e565b80156119115780601f106118e657610100808354040283529160200191611911565b820191906000526020600020905b8154815290600101906020018083116118f457829003601f168201915b505050918352505060048201546001600160a01b0316602082015260058201805460409092019161194190615d3e565b80601f016020809104026020016040519081016040528092919081815260200182805461196d90615d3e565b80156119ba5780601f1061198f576101008083540402835291602001916119ba565b820191906000526020600020905b81548152906001019060200180831161199d57829003601f168201915b5050505050815260200160068201805480602002602001604051908101604052809291908181526020018280548015611a1257602002820191906000526020600020905b8154815260200190600101908083116119fe575b505050919092525050600b546020830151606084015160405163e248d45760e01b81529495506000946001600160a01b03909316935063e248d45792611a5c929190600401615918565b60006040518083038186803b158015611a7457600080fd5b505afa158015611a88573d6000803e3d6000fd5b505050506040513d6000823e601f3d908101601f19168201604052611ab091908101906148c3565b90506000611ae0611ac0876134a4565b86856060015186604001518660405160200161157295949392919061553d565b905080604051602001611af3919061584d565b604051602081830303815290604052935050505092915050565b80516020818301810180516011825292820191909301209152600281018054611b3590615d3e565b80601f0160208091040260200160405190810160405280929190818152602001828054611b6190615d3e565b8015611bae5780601f10611b8357610100808354040283529160200191611bae565b820191906000526020600020905b815481529060010190602001808311611b9157829003601f168201915b505050505090806003018054611bc390615d3e565b80601f0160208091040260200160405190810160405280929190818152602001828054611bef90615d3e565b8015611c3c5780601f10611c1157610100808354040283529160200191611c3c565b820191906000526020600020905b815481529060010190602001808311611c1f57829003601f168201915b505050600484015460058501805494956001600160a01b03909216949193509150611c6690615d3e565b80601f0160208091040260200160405190810160405280929190818152602001828054611c9290615d3e565b8015611cdf5780601f10611cb457610100808354040283529160200191611cdf565b820191906000526020600020905b815481529060010190602001808311611cc257829003601f168201915b5050505050905084565b60006001600160a01b038216611d545760405162461bcd60e51b815260206004820152602a60248201527f4552433732313a2062616c616e636520717565727920666f7220746865207a65604482015269726f206164647265737360b01b6064820152608401610539565b506001600160a01b031660009081526003602052604090205490565b60606001805461044e90615d3e565b611d8a338383613732565b5050565b611d988284615cdc565b815114611dfc5760405162461bcd60e51b815260206004820152602c60248201527f4e756d626572206f6620746f6b656e496473206d757374206d6174636820746860448201526b6520626f6172642073697a6560a01b6064820152608401610539565b60005b81518110156121bc576000611e3a838381518110611e2d57634e487b7160e01b600052603260045260246000fd5b6020026020010151611670565b90506001600160a01b038116331415611e8f5760405162461bcd60e51b815260206004820152601760248201527643616e27742075736520796f7572206f776e204e46547360481b6044820152606401610539565b600d54611ea69082906001600160a01b0316613042565b611ef05760405162461bcd60e51b815260206004820152601b60248201527a139195081a5cc81b9bdd08185c1c1c9bdd995908199bdc88185b1b602a1b6044820152606401610539565b600d5483516001600160a01b039091169063d531400290859085908110611f2757634e487b7160e01b600052603260045260246000fd5b60200260200101516040518263ffffffff1660e01b8152600401611f4d91815260200190565b602060405180830381600087803b158015611f6757600080fd5b505af1158015611f7b573d6000803e3d6000fd5b505050506040513d601f19601f82011682018060405250810190611f9f919061483d565b15611fec5760405162461bcd60e51b815260206004820152601e60248201527f4e46542069732070617274206f6620616e6f7468657220617274776f726b00006044820152606401610539565b6012600084848151811061201057634e487b7160e01b600052603260045260246000fd5b60209081029190910181015182528101919091526040016000205460ff161561206f5760405162461bcd60e51b8152602060048201526011602482015270139195081a5cc81a5b881d1c985b9cda5d607a1b6044820152606401610539565b600c5483516001600160a01b039091169063dc5fb0009083908690869081106120a857634e487b7160e01b600052603260045260246000fd5b60200260200101516040518363ffffffff1660e01b81526004016120e19291906001600160a01b03929092168252602082015260400190565b600060405180830381600087803b1580156120fb57600080fd5b505af115801561210f573d6000803e3d6000fd5b50505050612155813385858151811061213857634e487b7160e01b600052603260045260246000fd5b6020026020010151604051806020016040528060008152506137fd565b60016012600085858151811061217b57634e487b7160e01b600052603260045260246000fd5b6020026020010151815260200190815260200160002060006101000a81548160ff0219169083151502179055505080806121b490615d79565b915050611dff565b50600d54604051634af701a360e01b81526000916001600160a01b031690634af701a3906121f4908790879087903390600401615bb4565b600060405180830381600087803b15801561220e57600080fd5b505af1158015612222573d6000803e3d6000fd5b505050506040513d6000823e601f3d908101601f1916820160405261224a9190810190614a4e565b90507f77bb4d6591ce4b7f7b8977b562edb2b31b6d8cafa7b067f0ef9517fd48013df78160405161227b9190615b39565b60405180910390a160005b82518110156122f5576000601260008584815181106122b557634e487b7160e01b600052603260045260246000fd5b6020026020010151815260200190815260200160002060006101000a81548160ff02191690831515021790555080806122ed90615d79565b915050612286565b5050505050565b336001600160a01b03166011826040516123169190615483565b908152604051908190036020019020600401546001600160a01b0316146123915760405162461bcd60e51b815260206004820152602960248201527f4f6e6c79207468652067616d65277320706c617965722063616e20637265617460448201526819481d1a194813919560ba1b6064820152608401610539565b6124216011826040516123a49190615483565b908152604080519182900360209081018320600101805480830285018301909352828452919083018282801561241757602002820191906000526020600020906000905b825461010083900a900460ff168152602060019283018181049485019490930390920291018084116123e85790505b5050505050612fde565b1561246e5760405162461bcd60e51b815260206004820152601f60248201527f596f752063616e2774206d696e7420616e20756e736f6c7665642067616d65006044820152606401610539565b61247c600f80546001019055565b6000612487600f5490565b90506124933382613830565b600061249f82846116e7565b90506124ab828261384a565b600d546124c2906001600160a01b03166001611d7f565b60006040516020016124d390615892565b604051602081830303815290604052805190602001206011856040516124f99190615483565b908152602001604051809103902060030160405160200161251a91906154ce565b60405160208183030381529060405280519060200120141561253e57506004612542565b5060015b600c546040516001600160a01b0390911690638778f59090601190612568908890615483565b9081526040519081900360200181206004908101546001600160e01b031960e085901b1683526125a8926001600160a01b039091169188918791016158e4565b600060405180830381600087803b1580156125c257600080fd5b505af11580156125d6573d6000803e3d6000fd5b505050506125e3846138d5565b7f3f1a9864b5687304a31c9a81973dcaab589c026ee94a9f585cbe48323b7732988484604051612614929190615a1d565b60405180910390a150505050565b6040805160108082526102208201909252600091602082016102008036833701905050905060018160008151811061266a57634e487b7160e01b600052603260045260246000fd5b602002602001019060ff16908160ff16815250506002816001815181106126a157634e487b7160e01b600052603260045260246000fd5b602002602001019060ff16908160ff16815250506004816002815181106126d857634e487b7160e01b600052603260045260246000fd5b602002602001019060ff16908160ff168152505060018160038151811061270f57634e487b7160e01b600052603260045260246000fd5b602002602001019060ff16908160ff168152505060028160048151811061274657634e487b7160e01b600052603260045260246000fd5b602002602001019060ff16908160ff168152505060048160058151811061277d57634e487b7160e01b600052603260045260246000fd5b602002602001019060ff16908160ff16815250506003816006815181106127b457634e487b7160e01b600052603260045260246000fd5b602002602001019060ff16908160ff16815250506003816007815181106127eb57634e487b7160e01b600052603260045260246000fd5b602002602001019060ff16908160ff168152505060048160088151811061282257634e487b7160e01b600052603260045260246000fd5b602002602001019060ff16908160ff168152505060018160098151811061285957634e487b7160e01b600052603260045260246000fd5b602002602001019060ff16908160ff1681525050600281600a8151811061289057634e487b7160e01b600052603260045260246000fd5b602002602001019060ff16908160ff1681525050600481600b815181106128c757634e487b7160e01b600052603260045260246000fd5b602002602001019060ff16908160ff1681525050600381600c815181106128fe57634e487b7160e01b600052603260045260246000fd5b602002602001019060ff16908160ff1681525050600181600d8151811061293557634e487b7160e01b600052603260045260246000fd5b602002602001019060ff16908160ff1681525050600281600e8151811061296c57634e487b7160e01b600052603260045260246000fd5b602002602001019060ff16908160ff1681525050600381600f815181106129a357634e487b7160e01b600052603260045260246000fd5b602002602001019060ff16908160ff16815250506129c5600f80546001019055565b60006129d0600f5490565b90506129dc3382613830565b60006129e98284866114bd565b90506129f5828261384a565b600d54612a0c906001600160a01b03166001611d7f565b600c546040516308778f5960e41b81526001600160a01b0390911690638778f59090612a4190339086906001906004016158e4565b600060405180830381600087803b158015612a5b57600080fd5b505af1158015612a6f573d6000803e3d6000fd5b505050507f3f1a9864b5687304a31c9a81973dcaab589c026ee94a9f585cbe48323b7732988260405161261491906040808252600890820152677465737447616d6560c01b6060820152602081019190915260800190565b612ad13383613233565b612aed5760405162461bcd60e51b815260040161053990615ae8565b612af9848484846137fd565b50505050565b612b08826139c5565b612b485760405162461bcd60e51b8152602060048201526011602482015270496e76616c69642067616d65207479706560781b6044820152606401610539565b612b5183613b2c565b612b925760405162461bcd60e51b8152602060048201526012602482015271125b9d985b1a590819d85b59481b195d995b60721b6044820152606401610539565b80601185604051612ba39190615483565b908152602001604051809103902060040160006101000a8154816001600160a01b0302191690836001600160a01b0316021790555083601185604051612be99190615483565b90815260200160405180910390206005019080519060200190612c0d929190614448565b50826001600160401b03811115612c3457634e487b7160e01b600052604160045260246000fd5b604051908082528060200260200182016040528015612c5d578160200160208202803683370190505b50601185604051612c6e9190615483565b90815260200160405180910390206000019080519060200190612c929291906144cc565b50826001600160401b03811115612cb957634e487b7160e01b600052604160045260246000fd5b604051908082528060200260200182016040528015612ce2578160200160208202803683370190505b50601185604051612cf39190615483565b90815260200160405180910390206001019080519060200190612d179291906144cc565b50612d21836134a4565b601185604051612d319190615483565b90815260200160405180910390206002019080519060200190612d55929190614448565b5081601185604051612d679190615483565b90815260200160405180910390206003019080519060200190612d8b929190614448565b5060408051808201909152600a8152691cdc5d585c9951dc9a5960b21b6020918201528251908301207fc3ddc1f4f3920201d34a3f107fe291f8abe441589f07c3f734acaaaf64d57c2e1415612e2a57612df06010612deb600486615cc8565b613b4a565b601185604051612e009190615483565b90815260200160405180910390206006019080519060200190612e2492919061456d565b50612f70565b6040805180820190915260048152636469636560e01b6020918201528251908301207f01f9ca87172ecd8343d776bdd6024a4028f5596c76320882abd93e3bd1c724eb1415612e8357612df06006612deb600486615cc8565b604080518082019091526009815268686578616772616d7360b81b6020918201528251908301207f1ab43e081de59dbb11ddd139375d1386f983b7c753667dd103c496cf3ba132411480612f1c57506040805180820190915260098152681cdc1bdb9cdbdc995960ba1b6020918201528251908301207fdbd46d7dad44ed00275a5702bce33a878a0245e574e0745556c911b86e8bfc3d145b15612f3057612df06004612deb8186615cc8565b60405162461bcd60e51b8152602060048201526015602482015274556e737570706f727465642067616d65207479706560581b6044820152606401610539565b336001600160a01b03167f19bf20acb39695a511e15960f093faf157e1c0a74ffdd283d4750e7a7b44c6ac85601187604051612fac9190615483565b908152604051908190036020018120612fc592916159f8565b60405180910390a250505050565b606061043982613cb6565b6000805b82518110156130395782818151811061300b57634e487b7160e01b600052603260045260246000fd5b602002602001015160ff16600014156130275750600192915050565b8061303181615d79565b915050612fe2565b50600092915050565b6001600160a01b03918216600090815260056020908152604080832093909416825291909152205460ff1690565b6060600061307d33611ce9565b90506000816001600160401b038111156130a757634e487b7160e01b600052604160045260246000fd5b6040519080825280602002602001820160405280156130d0578160200160208202803683370190505b50905060005b82811015613125576130e83382611427565b82828151811061310857634e487b7160e01b600052603260045260246000fd5b60209081029190910101528061311d81615d79565b9150506130d6565b5092915050565b60006001600160e01b0319821663780e9d6360e01b1480610439575061043982613e25565b6000908152600260205260409020546001600160a01b0316151590565b600081815260046020526040902080546001600160a01b0319166001600160a01b03841690811790915581906131a382611670565b6001600160a01b03167f8c5be1e5ebec7d5bd14f71427d1e84f3dd0314c0f7b2291e5b200ac8c7c3b92560405160405180910390a45050565b60008060026131ec846001615cb0565b6131f69190615cc8565b9050825b8082101561322c5750806002816132118187615cc8565b61321b9190615cb0565b6132259190615cc8565b91506131fa565b9392505050565b600061323e82613151565b61329f5760405162461bcd60e51b815260206004820152602c60248201527f4552433732313a206f70657261746f7220717565727920666f72206e6f6e657860448201526b34b9ba32b73a103a37b5b2b760a11b6064820152608401610539565b60006132aa83611670565b9050806001600160a01b0316846001600160a01b031614806132d157506132d18185613042565b806132f55750836001600160a01b03166132ea846104d1565b6001600160a01b0316145b949350505050565b826001600160a01b031661331082611670565b6001600160a01b0316146133745760405162461bcd60e51b815260206004820152602560248201527f4552433732313a207472616e736665722066726f6d20696e636f72726563742060448201526437bbb732b960d91b6064820152608401610539565b6001600160a01b0382166133d65760405162461bcd60e51b8152602060048201526024808201527f4552433732313a207472616e7366657220746f20746865207a65726f206164646044820152637265737360e01b6064820152608401610539565b6133e1838383613e75565b6133ec60008261316e565b6001600160a01b0383166000908152600360205260408120805460019290613415908490615cfb565b90915550506001600160a01b0382166000908152600360205260408120805460019290613443908490615cb0565b909155505060008181526002602052604080822080546001600160a01b0319166001600160a01b0386811691821790925591518493918716917fddf252ad1be2c89b69c2b068fc378daa952ba7f163c4a11628f55a4df523b3ef91a4505050565b6060816134c85750506040805180820190915260018152600360fc1b602082015290565b8160005b81156134f257806134dc81615d79565b91506134eb9050600a83615cc8565b91506134cc565b6000816001600160401b0381111561351a57634e487b7160e01b600052604160045260246000fd5b6040519080825280601f01601f191660200182016040528015613544576020820181803683370190505b5090505b84156132f557613559600183615cfb565b9150613566600a86615d94565b613571906030615cb0565b60f81b81838151811061359457634e487b7160e01b600052603260045260246000fd5b60200101906001600160f81b031916908160001a9053506135b6600a86615cc8565b9450613548565b60608151600014156135dd57505060408051602081019091526000815290565b6000604051806060016040528060408152602001615e12604091399050600060038451600261360c9190615cb0565b6136169190615cc8565b613621906004615cdc565b90506000613630826020615cb0565b6001600160401b0381111561365557634e487b7160e01b600052604160045260246000fd5b6040519080825280601f01601f19166020018201604052801561367f576020820181803683370190505b509050818152600183018586518101602084015b818310156136ed5760039283018051603f601282901c811687015160f890811b8552600c83901c8216880151811b6001860152600683901c8216880151811b60028601529116860151901b93820193909352600401613693565b600389510660018114613707576002811461371857613724565b613d3d60f01b600119830152613724565b603d60f81b6000198301525b509398975050505050505050565b816001600160a01b0316836001600160a01b031614156137905760405162461bcd60e51b815260206004820152601960248201527822a9219b99189d1030b8383937bb32903a379031b0b63632b960391b6044820152606401610539565b6001600160a01b03838116600081815260056020908152604080832094871680845294825291829020805460ff191686151590811790915591519182527f17307eab39ab6107e8899845ad3d59bd9653f200f220920489ca2b5937696c31910160405180910390a3505050565b6138088484846132fd565b61381484848484613e80565b612af95760405162461bcd60e51b815260040161053990615a3f565b611d8a828260405180602001604052806000815250613f8d565b61385382613151565b6138b65760405162461bcd60e51b815260206004820152602e60248201527f45524337323155524953746f726167653a2055524920736574206f66206e6f6e60448201526d32bc34b9ba32b73a103a37b5b2b760911b6064820152608401610539565b6000828152600660209081526040909120825161066a92840190614448565b60006011826040516138e79190615483565b90815260405190819003602001902080549091506001600160401b0381111561392057634e487b7160e01b600052604160045260246000fd5b604051908082528060200260200182016040528015613949578160200160208202803683370190505b50805161395d9183916020909101906144cc565b5080546001600160401b0381111561398557634e487b7160e01b600052604160045260246000fd5b6040519080825280602002602001820160405280156139ae578160200160208202803683370190505b50805161066a9160018401916020909101906144cc565b60006040516020016139d690615892565b60405160208183030381529060405280519060200120826040516020016139fd9190615483565b604051602081830303815290604052805190602001201480613a725750604051691cdc5d585c9951dc9a5960b21b6020820152602a016040516020818303038152906040528051906020012082604051602001613a5a9190615483565b60405160208183030381529060405280519060200120145b80613aca5750604051636469636560e01b60208201526024016040516020818303038152906040528051906020012082604051602001613ab29190615483565b60405160208183030381529060405280519060200120145b80610439575060405168686578616772616d7360b81b60208201526029016040516020818303038152906040528051906020012082604051602001613b0f9190615483565b604051602081830303815290604052805190602001201492915050565b60008160101480613b3d5750816040145b8061043957505060801490565b60606000826001600160401b03811115613b7457634e487b7160e01b600052604160045260246000fd5b604051908082528060200260200182016040528015613b9d578160200160208202803683370190505b50905060005b83811015613cae576040516001600160601b03193360601b1660208201524360348201526054810182905260009086906074016040516020818303038152906040528051906020012060001c613bf99190615d94565b905060005b82811015613c645781848281518110613c2757634e487b7160e01b600052603260045260246000fd5b60200260200101511415613c525786613c41836001615cb0565b613c4b9190615d94565b9150600090505b80613c5c81615d79565b915050613bfe565b50613c70816001615cb0565b838381518110613c9057634e487b7160e01b600052603260045260246000fd5b60209081029190910101525080613ca681615d79565b915050613ba3565b509392505050565b6060613cc182613151565b613d275760405162461bcd60e51b815260206004820152603160248201527f45524337323155524953746f726167653a2055524920717565727920666f72206044820152703737b732bc34b9ba32b73a103a37b5b2b760791b6064820152608401610539565b60008281526006602052604081208054613d4090615d3e565b80601f0160208091040260200160405190810160405280929190818152602001828054613d6c90615d3e565b8015613db95780601f10613d8e57610100808354040283529160200191613db9565b820191906000526020600020905b815481529060010190602001808311613d9c57829003601f168201915b505050505090506000613dd760408051602081019091526000815290565b9050805160001415613dea575092915050565b815115613e1c578082604051602001613e0492919061549f565b60405160208183030381529060405292505050919050565b6132f584613fc0565b60006001600160e01b031982166380ac58cd60e01b1480613e5657506001600160e01b03198216635b5e139f60e01b145b8061043957506301ffc9a760e01b6001600160e01b0319831614610439565b61066a838383614097565b60006001600160a01b0384163b15613f8257604051630a85bd0160e11b81526001600160a01b0385169063150b7a0290613ec49033908990889088906004016158a7565b602060405180830381600087803b158015613ede57600080fd5b505af1925050508015613f0e575060408051601f3d908101601f19168201909252613f0b91810190614875565b60015b613f68573d808015613f3c576040519150601f19603f3d011682016040523d82523d6000602084013e613f41565b606091505b508051613f605760405162461bcd60e51b815260040161053990615a3f565b805181602001fd5b6001600160e01b031916630a85bd0160e11b1490506132f5565b506001949350505050565b613f97838361414f565b613fa46000848484613e80565b61066a5760405162461bcd60e51b815260040161053990615a3f565b6060613fcb82613151565b61402f5760405162461bcd60e51b815260206004820152602f60248201527f4552433732314d657461646174613a2055524920717565727920666f72206e6f60448201526e3732bc34b9ba32b73a103a37b5b2b760891b6064820152608401610539565b600061404660408051602081019091526000815290565b90506000815111614066576040518060200160405280600081525061322c565b80614070846134a4565b60405160200161408192919061549f565b6040516020818303038152906040529392505050565b6001600160a01b0383166140f2576140ed81600980546000838152600a60205260408120829055600182018355919091527f6e1540171b6c0c960b71a7020d9f60077f6af931a8bbf590da0223dacf75c7af0155565b614115565b816001600160a01b0316836001600160a01b03161461411557614115838261428e565b6001600160a01b03821661412c5761066a8161432b565b826001600160a01b0316826001600160a01b03161461066a5761066a8282614404565b6001600160a01b0382166141a55760405162461bcd60e51b815260206004820181905260248201527f4552433732313a206d696e7420746f20746865207a65726f20616464726573736044820152606401610539565b6141ae81613151565b156141fb5760405162461bcd60e51b815260206004820152601c60248201527f4552433732313a20746f6b656e20616c7265616479206d696e746564000000006044820152606401610539565b61420760008383613e75565b6001600160a01b0382166000908152600360205260408120805460019290614230908490615cb0565b909155505060008181526002602052604080822080546001600160a01b0319166001600160a01b03861690811790915590518392907fddf252ad1be2c89b69c2b068fc378daa952ba7f163c4a11628f55a4df523b3ef908290a45050565b6000600161429b84611ce9565b6142a59190615cfb565b6000838152600860205260409020549091508082146142f8576001600160a01b03841660009081526007602090815260408083208584528252808320548484528184208190558352600890915290208190555b5060009182526008602090815260408084208490556001600160a01b039094168352600781528383209183525290812055565b60095460009061433d90600190615cfb565b6000838152600a60205260408120546009805493945090928490811061437357634e487b7160e01b600052603260045260246000fd5b9060005260206000200154905080600983815481106143a257634e487b7160e01b600052603260045260246000fd5b6000918252602080832090910192909255828152600a909152604080822084905585825281205560098054806143e857634e487b7160e01b600052603160045260246000fd5b6001900381819060005260206000200160009055905550505050565b600061440f83611ce9565b6001600160a01b039093166000908152600760209081526040808320868452825280832085905593825260089052919091209190915550565b82805461445490615d3e565b90600052602060002090601f01602090048101928261447657600085556144bc565b82601f1061448f57805160ff19168380011785556144bc565b828001600101855582156144bc579182015b828111156144bc5782518255916020019190600101906144a1565b506144c89291506145a7565b5090565b82805482825590600052602060002090601f016020900481019282156144bc5791602002820160005b8382111561453357835183826101000a81548160ff021916908360ff16021790555092602001926001016020816000010492830192600103026144f5565b80156145605782816101000a81549060ff0219169055600101602081600001049283019260010302614533565b50506144c89291506145a7565b8280548282559060005260206000209081019282156144bc57916020028201828111156144bc5782518255916020019190600101906144a1565b5b808211156144c857600081556001016145a8565b60006145cf6145ca84615c89565b615c36565b90508281528383830111156145e357600080fd5b828260208301376000602084830101529392505050565b80356001600160a01b038116811461461157600080fd5b919050565b600082601f830112614626578081fd5b813560206146366145ca83615c66565b80838252828201915082860187848660051b8901011115614655578586fd5b855b8581101561468157813560ff8116811461466f578788fd5b84529284019290840190600101614657565b5090979650505050505050565b600082601f83011261469e578081fd5b61322c838335602085016145bc565b6000602082840312156146be578081fd5b61322c826145fa565b600080604083850312156146d9578081fd5b6146e2836145fa565b91506146f0602084016145fa565b90509250929050565b60008060006060848603121561470d578081fd5b614716846145fa565b9250614724602085016145fa565b9150604084013590509250925092565b60008060008060808587031215614749578182fd5b614752856145fa565b9350614760602086016145fa565b92506040850135915060608501356001600160401b03811115614781578182fd5b8501601f81018713614791578182fd5b6147a0878235602084016145bc565b91505092959194509250565b600080604083850312156147be578182fd5b6147c7836145fa565b915060208301356147d781615dea565b809150509250929050565b600080604083850312156147f4578182fd5b6147fd836145fa565b946020939093013593505050565b60006020828403121561481c578081fd5b81356001600160401b03811115614831578182fd5b6132f584828501614616565b60006020828403121561484e578081fd5b815161322c81615dea565b60006020828403121561486a578081fd5b813561322c81615dfb565b600060208284031215614886578081fd5b815161322c81615dfb565b6000602082840312156148a2578081fd5b81356001600160401b038111156148b7578182fd5b6132f58482850161468e565b6000602082840312156148d4578081fd5b81516001600160401b038111156148e9578182fd5b8201601f810184136148f9578182fd5b80516149076145ca82615c89565b81815285602083850101111561491b578384fd5b61492c826020830160208601615d12565b95945050505050565b60008060608385031215614947578182fd5b82356001600160401b0381111561495c578283fd5b6149688582860161468e565b925050602084603f85011261497b578182fd5b614983615bec565b8082860187606088011115614996578485fd5b845b60028110156149c657813563ffffffff811681146149b4578687fd5b84529284019290840190600101614998565b509497909650945050505050565b600080600080608085870312156149e9578182fd5b84356001600160401b03808211156149ff578384fd5b614a0b8883890161468e565b9550602087013594506040870135915080821115614a27578384fd5b50614a348782880161468e565b925050614a43606086016145fa565b905092959194509250565b60006020808385031215614a60578182fd5b82516001600160401b0380821115614a76578384fd5b9084019060608287031215614a89578384fd5b614a91615c14565b825181528383015184820152604083015182811115614aae578586fd5b80840193505086601f840112614ac2578485fd5b82519150614ad26145ca83615c66565b80838252858201915085850189878660051b8801011115614af1578788fd5b8795505b84861015614b13578051835260019590950194918601918601614af5565b506040830152509695505050505050565b600060208284031215614b35578081fd5b5035919050565b600080600060608486031215614b50578081fd5b8335925060208401356001600160401b0380821115614b6d578283fd5b614b7987838801614616565b93506040860135915080821115614b8e578283fd5b50614b9b8682870161468e565b9150509250925092565b60008060408385031215614bb7578182fd5b8235915060208301356001600160401b03811115614bd3578182fd5b614bdf8582860161468e565b9150509250929050565b600080600060608486031215614bfd578081fd5b83359250602080850135925060408501356001600160401b03811115614c21578283fd5b8501601f81018713614c31578283fd5b8035614c3f6145ca82615c66565b8082825284820191508484018a868560051b8701011115614c5e578687fd5b8694505b83851015614c80578035835260019490940193918501918501614c62565b5080955050505050509250925092565b6000815180845260208085019450808401835b83811015614cbf57815187529582019590820190600101614ca3565b509495945050505050565b6000815480845260208085019450838352808320835b83811015614cbf57815487529582019560019182019101614ce0565b805480835260008281526020808220940193909190825b82601f82011015614f9a57815460ff80821688526020614d3c818a01838560081c1660ff169052565b6040614d51818b01848660101c1660ff169052565b6060614d66818c01858760181c1660ff169052565b6080614d7a818d018688871c1660ff169052565b60a09350614d91848d01868860281c1660ff169052565b60c0614da6818e01878960301c1660ff169052565b60e0614dbb818f01888a60381c1660ff169052565b60ff88861c8816166101008f0152614dde6101208f01888a60481c1660ff169052565b614df36101408f01888a60501c1660ff169052565b614e086101608f01888a60581c1660ff169052565b60ff88851c8816166101808f0152614e2b6101a08f01888a60681c1660ff169052565b614e406101c08f01888a60701c1660ff169052565b614e556101e08f01888a60781c1660ff169052565b60ff88841c8816166102008f0152614e786102208f01888a60881c1660ff169052565b614e8d6102408f01888a60901c1660ff169052565b614ea26102608f01888a60981c1660ff169052565b60ff88871c8816166102808f0152614ec56102a08f01888a60a81c1660ff169052565b614eda6102c08f01888a60b01c1660ff169052565b614eef6102e08f01888a60b81c1660ff169052565b60ff88831c8816166103008f0152614f126103208f01888a60c81c1660ff169052565b614f276103408f01888a60d01c1660ff169052565b614f3c6103608f01888a60d81c1660ff169052565b60ff88821c8816166103808f0152505050505050614f656103a08901828460e81c1660ff169052565b614f7a6103c08901828460f01c1660ff169052565b5060f81c6103e08701526104009095019460019190910190602001614d13565b90549082811015614fb55760ff821686526020909501946001015b82811015614fd15760ff600883901c1686526020909501946001015b82811015614fed5760ff601083901c1686526020909501946001015b828110156150095760ff601883901c1686526020909501946001015b8281101561502657602082901c60ff168652602095909501946001015b828110156150425760ff602883901c1686526020909501946001015b8281101561505e5760ff603083901c1686526020909501946001015b8281101561507a5760ff603883901c1686526020909501946001015b828110156150965760ff604083901c1686526020909501946001015b828110156150b25760ff604883901c1686526020909501946001015b828110156150ce5760ff605083901c1686526020909501946001015b828110156150ea5760ff605883901c1686526020909501946001015b828110156151065760ff606083901c1686526020909501946001015b828110156151225760ff606883901c1686526020909501946001015b8281101561513e5760ff607083901c1686526020909501946001015b8281101561515a5760ff607883901c1686526020909501946001015b828110156151765760ff608083901c1686526020909501946001015b828110156151925760ff608883901c1686526020909501946001015b828110156151ae5760ff609083901c1686526020909501946001015b828110156151ca5760ff609883901c1686526020909501946001015b828110156151e65760ff60a083901c1686526020909501946001015b828110156152025760ff60a883901c1686526020909501946001015b8281101561521e5760ff60b083901c1686526020909501946001015b8281101561523a5760ff60b883901c1686526020909501946001015b828110156152565760ff60c083901c1686526020909501946001015b828110156152725760ff60c883901c1686526020909501946001015b8281101561528e5760ff60d083901c1686526020909501946001015b828110156152aa5760ff60d883901c1686526020909501946001015b828110156152c65760ff60e083901c1686526020909501946001015b828110156152e25760ff60e883901c1686526020909501946001015b828110156152fe5760ff60f083901c1686526020909501946001015b828110156153145760f882901c86526020860195505b5093949350505050565b60008151808452615336816020860160208601615d12565b601f01601f19169290920160200192915050565b6000815161535c818560208601615d12565b9290920192915050565b6000815461537381615d3e565b80855260206001838116801561539057600181146153a4576153d2565b60ff198516888401526040880195506153d2565b866000528260002060005b858110156153ca5781548a82018601529083019084016153af565b890184019650505b505050505092915050565b60e0825260006153f060e0840183614cfc565b83810360208501526154058160018501614cfc565b9050838103604085015261541c8160028501615366565b905083810360608501526154338160038501615366565b905061544960048401546001600160a01b031690565b6001600160a01b0316608085015283810360a085015261546c8160058501615366565b905083810360c08501526132f58160068501614cca565b60008251615495818460208701615d12565b9190910192915050565b600083516154b1818460208801615d12565b8351908301906154c5818360208801615d12565b01949350505050565b60008083546154dc81615d3e565b600182811680156154f4576001811461550557615531565b60ff19841687528287019450615531565b8786526020808720875b858110156155285781548a82015290840190820161550f565b50505082870194505b50929695505050505050565b7f7b226e616d65223a2022466c697070616e646f202d205468652047616d65200081526000865161557581601f850160208b01615d12565b7f222c226465736372697074696f6e223a20224120466c697070616e646f206761601f918401918201527f6d6520706c61796564206f6e2074686520626c6f636b636861696e2e222c2267603f8201527f616d655f76657273696f6e223a2022302e312e30202f20426c7565204f636561605f8201526e3711161133b0b6b2afb4b2111d101160891b607f820152865161561681608e840160208b01615d12565b6f11161133b0b6b2afba3cb832911d101160811b608e9290910191820152855161564781609e840160208a01615d12565b7011161133b0b6b2afb632bb32b6111d101160791b609e92909101918201526156c86156ba6156b461567c60af85018961534a565b7f222c22696d616765223a2022646174613a696d6167652f7376672b786d6c3b62815265185cd94d8d0b60d21b602082015260260190565b8661534a565b61227d60f01b815260020190565b98975050505050505050565b607b60f81b81527f226e616d65223a2022466c697070616e646f202d205468652047616d6520000060018201526000835161571681601f850160208801615d12565b61088b60f21b601f918401918201527f226465736372697074696f6e223a20224120466c697070616e646f2067616d6560218201527f20706c61796564206f6e2074686520626c6f636b636861696e2e222c0000000060418201527f2267616d655f76657273696f6e223a2022302e312e30202f20426c7565204f63605d8201526419585b888b60da1b607d820152750899d85b5957da59088e88089d195cdd11d85b59488b60521b6082820152790899d85b5957dd1e5c19488e88089cdc5d585c9951dc9a59088b60321b609882015261492c61584061583361582d60b285017f22696d616765223a2022646174613a696d6167652f7376672b786d6c3b626173815263194d8d0b60e21b602082015260240190565b8761534a565b601160f91b815260010190565b607d60f81b815260010190565b7f646174613a6170706c69636174696f6e2f6a736f6e3b6261736536342c00000081526000825161588581601d850160208701615d12565b91909101601d0192915050565b681cdc1bdb9cdbdc995960ba1b815260090190565b6001600160a01b03858116825284166020820152604081018390526080606082018190526000906158da9083018461531e565b9695505050505050565b6001600160a01b039390931683526020830191909152604082015260600190565b60208152600061322c6020830184614c90565b604080825283519082018190526000906020906060840190828701845b8281101561595457815160ff1684529284019290840190600101615935565b505050838103828501526158da818661531e565b60208152600061322c602083018461531e565b60408152600061598e604083018561531e565b905060018060a01b03831660208301529392505050565b6080815260006159b8608083018761531e565b82810360208401526159ca818761531e565b6001600160a01b0386166040850152838103606085015290506159ed818561531e565b979650505050505050565b604081526000615a0b604083018561531e565b828103602084015261492c81856153dd565b604081526000615a30604083018561531e565b90508260208301529392505050565b60208082526032908201527f4552433732313a207472616e7366657220746f206e6f6e20455243373231526560408201527131b2b4bb32b91034b6b83632b6b2b73a32b960711b606082015260800190565b60208082526037908201527f596f752063616e206e6f7420666c697020612074696c65206174207468617420604082015276706f736974696f6e2c206f7574206f6620626f756e647360481b606082015260800190565b60208082526031908201527f4552433732313a207472616e736665722063616c6c6572206973206e6f74206f6040820152701ddb995c881b9bdc88185c1c1c9bdd9959607a1b606082015260800190565b602081528151602082015260208201516040820152600060408301516060808401526132f56080840182614c90565b606081526000615b7b60608301856153dd565b905060208083018460005b6002811015615ba957815163ffffffff1683529183019190830190600101615b86565b505050509392505050565b848152836020820152608060408201526000615bd36080830185614c90565b905060018060a01b038316606083015295945050505050565b604080519081016001600160401b0381118282101715615c0e57615c0e615dd4565b60405290565b604051606081016001600160401b0381118282101715615c0e57615c0e615dd4565b604051601f8201601f191681016001600160401b0381118282101715615c5e57615c5e615dd4565b604052919050565b60006001600160401b03821115615c7f57615c7f615dd4565b5060051b60200190565b60006001600160401b03821115615ca257615ca2615dd4565b50601f01601f191660200190565b60008219821115615cc357615cc3615da8565b500190565b600082615cd757615cd7615dbe565b500490565b6000816000190483118215151615615cf657615cf6615da8565b500290565b600082821015615d0d57615d0d615da8565b500390565b60005b83811015615d2d578181015183820152602001615d15565b83811115612af95750506000910152565b600181811c90821680615d5257607f821691505b60208210811415615d7357634e487b7160e01b600052602260045260246000fd5b50919050565b6000600019821415615d8d57615d8d615da8565b5060010190565b600082615da357615da3615dbe565b500690565b634e487b7160e01b600052601160045260246000fd5b634e487b7160e01b600052601260045260246000fd5b634e487b7160e01b600052604160045260246000fd5b8015158114615df857600080fd5b50565b6001600160e01b031981168114615df857600080fdfe4142434445464748494a4b4c4d4e4f505152535455565758595a6162636465666768696a6b6c6d6e6f707172737475767778797a303132333435363738392b2fa2646970667358221220c81700701881e2bfbf61b7176a1553aa667ebcb8a726dabd3bba05f48f2d211664736f6c63430008040033",
  "linkReferences": {},
  "deployedLinkReferences": {}
}